{
  "address": "0x8f0237b2076887988b796C6054A9a5a6Cf5cA058",
  "abi": [
    {
      "inputs": [],
      "stateMutability": "nonpayable",
      "type": "constructor"
    },
    {
      "inputs": [
        {
          "internalType": "address",
          "name": "sender",
          "type": "address"
        },
        {
          "internalType": "uint256",
          "name": "tokenId",
          "type": "uint256"
        },
        {
          "internalType": "address",
          "name": "owner",
          "type": "address"
        }
      ],
      "name": "ERC721IncorrectOwner",
      "type": "error"
    },
    {
      "inputs": [
        {
          "internalType": "address",
          "name": "operator",
          "type": "address"
        },
        {
          "internalType": "uint256",
          "name": "tokenId",
          "type": "uint256"
        }
      ],
      "name": "ERC721InsufficientApproval",
      "type": "error"
    },
    {
      "inputs": [
        {
          "internalType": "address",
          "name": "approver",
          "type": "address"
        }
      ],
      "name": "ERC721InvalidApprover",
      "type": "error"
    },
    {
      "inputs": [
        {
          "internalType": "address",
          "name": "operator",
          "type": "address"
        }
      ],
      "name": "ERC721InvalidOperator",
      "type": "error"
    },
    {
      "inputs": [
        {
          "internalType": "address",
          "name": "owner",
          "type": "address"
        }
      ],
      "name": "ERC721InvalidOwner",
      "type": "error"
    },
    {
      "inputs": [
        {
          "internalType": "address",
          "name": "receiver",
          "type": "address"
        }
      ],
      "name": "ERC721InvalidReceiver",
      "type": "error"
    },
    {
      "inputs": [
        {
          "internalType": "address",
          "name": "sender",
          "type": "address"
        }
      ],
      "name": "ERC721InvalidSender",
      "type": "error"
    },
    {
      "inputs": [
        {
          "internalType": "uint256",
          "name": "tokenId",
          "type": "uint256"
        }
      ],
      "name": "ERC721NonexistentToken",
      "type": "error"
    },
    {
      "inputs": [],
      "name": "InvalidAddress",
      "type": "error"
    },
    {
      "inputs": [],
      "name": "InvalidDueDay",
      "type": "error"
    },
    {
      "inputs": [],
      "name": "InvalidRentAmount",
      "type": "error"
    },
    {
      "inputs": [],
      "name": "LeaseNotActive",
      "type": "error"
    },
    {
      "inputs": [
        {
          "internalType": "address",
          "name": "owner",
          "type": "address"
        }
      ],
      "name": "OwnableInvalidOwner",
      "type": "error"
    },
    {
      "inputs": [
        {
          "internalType": "address",
          "name": "account",
          "type": "address"
        }
      ],
      "name": "OwnableUnauthorizedAccount",
      "type": "error"
    },
    {
      "inputs": [],
      "name": "Unauthorized",
      "type": "error"
    },
    {
      "anonymous": false,
      "inputs": [
        {
          "indexed": true,
          "internalType": "string",
          "name": "triggerType",
          "type": "string"
        },
        {
          "indexed": true,
          "internalType": "uint256",
          "name": "leaseId",
          "type": "uint256"
        },
        {
          "indexed": false,
          "internalType": "bytes",
          "name": "data",
          "type": "bytes"
        }
      ],
      "name": "AIAgentTrigger",
      "type": "event"
    },
    {
      "anonymous": false,
      "inputs": [
        {
          "indexed": true,
          "internalType": "address",
          "name": "owner",
          "type": "address"
        },
        {
          "indexed": true,
          "internalType": "address",
          "name": "approved",
          "type": "address"
        },
        {
          "indexed": true,
          "internalType": "uint256",
          "name": "tokenId",
          "type": "uint256"
        }
      ],
      "name": "Approval",
      "type": "event"
    },
    {
      "anonymous": false,
      "inputs": [
        {
          "indexed": true,
          "internalType": "address",
          "name": "owner",
          "type": "address"
        },
        {
          "indexed": true,
          "internalType": "address",
          "name": "operator",
          "type": "address"
        },
        {
          "indexed": false,
          "internalType": "bool",
          "name": "approved",
          "type": "bool"
        }
      ],
      "name": "ApprovalForAll",
      "type": "event"
    },
    {
      "anonymous": false,
      "inputs": [
        {
          "indexed": false,
          "internalType": "uint256",
          "name": "_fromTokenId",
          "type": "uint256"
        },
        {
          "indexed": false,
          "internalType": "uint256",
          "name": "_toTokenId",
          "type": "uint256"
        }
      ],
      "name": "BatchMetadataUpdate",
      "type": "event"
    },
    {
      "anonymous": false,
      "inputs": [
        {
          "indexed": true,
          "internalType": "uint256",
          "name": "leaseId",
          "type": "uint256"
        },
        {
          "indexed": true,
          "internalType": "address",
          "name": "tenant",
          "type": "address"
        },
        {
          "indexed": true,
          "internalType": "address",
          "name": "landlord",
          "type": "address"
        },
        {
          "indexed": false,
          "internalType": "uint256",
          "name": "monthlyRent",
          "type": "uint256"
        },
        {
          "indexed": false,
          "internalType": "uint256",
          "name": "dueDay",
          "type": "uint256"
        }
      ],
      "name": "LeaseCreated",
      "type": "event"
    },
    {
      "anonymous": false,
      "inputs": [
        {
          "indexed": false,
          "internalType": "uint256",
          "name": "_tokenId",
          "type": "uint256"
        }
      ],
      "name": "MetadataUpdate",
      "type": "event"
    },
    {
      "anonymous": false,
      "inputs": [
        {
          "indexed": true,
          "internalType": "address",
          "name": "previousOwner",
          "type": "address"
        },
        {
          "indexed": true,
          "internalType": "address",
          "name": "newOwner",
          "type": "address"
        }
      ],
      "name": "OwnershipTransferred",
      "type": "event"
    },
    {
      "anonymous": false,
      "inputs": [
        {
          "indexed": true,
          "internalType": "uint256",
          "name": "paymentId",
          "type": "uint256"
        },
        {
          "indexed": true,
          "internalType": "uint256",
          "name": "leaseId",
          "type": "uint256"
        },
        {
          "indexed": false,
          "internalType": "uint256",
          "name": "amount",
          "type": "uint256"
        },
        {
          "indexed": false,
          "internalType": "string",
          "name": "settlementChain",
          "type": "string"
        }
      ],
      "name": "PaymentSettled",
      "type": "event"
    },
    {
      "anonymous": false,
      "inputs": [
        {
          "indexed": true,
          "internalType": "uint256",
          "name": "leaseId",
          "type": "uint256"
        },
        {
          "indexed": true,
          "internalType": "uint256",
          "name": "paymentId",
          "type": "uint256"
        },
        {
          "indexed": true,
          "internalType": "address",
          "name": "tenant",
          "type": "address"
        },
        {
          "indexed": false,
          "internalType": "uint256",
          "name": "amount",
          "type": "uint256"
        },
        {
          "indexed": false,
          "internalType": "bool",
          "name": "isEarly",
          "type": "bool"
        },
        {
          "indexed": false,
          "internalType": "uint256",
          "name": "yieldEarned",
          "type": "uint256"
        }
      ],
      "name": "RentPaid",
      "type": "event"
    },
    {
      "anonymous": false,
      "inputs": [
        {
          "indexed": true,
          "internalType": "address",
          "name": "tenant",
          "type": "address"
        },
        {
          "indexed": false,
          "internalType": "uint256",
          "name": "newScore",
          "type": "uint256"
        },
        {
          "indexed": false,
          "internalType": "enum INomaTypes.ReputationTier",
          "name": "newTier",
          "type": "uint8"
        }
      ],
      "name": "ReputationUpdated",
      "type": "event"
    },
    {
      "anonymous": false,
      "inputs": [
        {
          "indexed": true,
          "internalType": "address",
          "name": "from",
          "type": "address"
        },
        {
          "indexed": true,
          "internalType": "address",
          "name": "to",
          "type": "address"
        },
        {
          "indexed": true,
          "internalType": "uint256",
          "name": "tokenId",
          "type": "uint256"
        }
      ],
      "name": "Transfer",
      "type": "event"
    },
    {
      "anonymous": false,
      "inputs": [
        {
          "indexed": true,
          "internalType": "uint256",
          "name": "leaseId",
          "type": "uint256"
        },
        {
          "indexed": false,
          "internalType": "uint256",
          "name": "amount",
          "type": "uint256"
        },
        {
          "indexed": false,
          "internalType": "string",
          "name": "strategy",
          "type": "string"
        }
      ],
      "name": "YieldRouted",
      "type": "event"
    },
    {
      "inputs": [
        {
          "internalType": "address",
          "name": "to",
          "type": "address"
        },
        {
          "internalType": "uint256",
          "name": "tokenId",
          "type": "uint256"
        }
      ],
      "name": "approve",
      "outputs": [],
      "stateMutability": "nonpayable",
      "type": "function"
    },
    {
      "inputs": [
        {
          "internalType": "address",
          "name": "owner",
          "type": "address"
        }
      ],
      "name": "balanceOf",
      "outputs": [
        {
          "internalType": "uint256",
          "name": "",
          "type": "uint256"
        }
      ],
      "stateMutability": "view",
      "type": "function"
    },
    {
      "inputs": [
        {
          "internalType": "address",
          "name": "tenant",
          "type": "address"
        },
        {
          "internalType": "uint256",
          "name": "monthlyRent",
          "type": "uint256"
        },
        {
          "internalType": "uint256",
          "name": "dueDay",
          "type": "uint256"
        }
      ],
      "name": "createLeaseAsLandlord",
      "outputs": [
        {
          "internalType": "uint256",
          "name": "leaseId",
          "type": "uint256"
        }
      ],
      "stateMutability": "nonpayable",
      "type": "function"
    },
    {
      "inputs": [
        {
          "internalType": "address",
          "name": "landlord",
          "type": "address"
        },
        {
          "internalType": "uint256",
          "name": "monthlyRent",
          "type": "uint256"
        },
        {
          "internalType": "uint256",
          "name": "dueDay",
          "type": "uint256"
        }
      ],
      "name": "createLeaseAsTenant",
      "outputs": [
        {
          "internalType": "uint256",
          "name": "leaseId",
          "type": "uint256"
        }
      ],
      "stateMutability": "nonpayable",
      "type": "function"
    },
    {
      "inputs": [
        {
          "internalType": "uint256",
          "name": "tokenId",
          "type": "uint256"
        }
      ],
      "name": "getApproved",
      "outputs": [
        {
          "internalType": "address",
          "name": "",
          "type": "address"
        }
      ],
      "stateMutability": "view",
      "type": "function"
    },
    {
      "inputs": [
        {
          "internalType": "address",
          "name": "landlord",
          "type": "address"
        }
      ],
      "name": "getLandlordLeases",
      "outputs": [
        {
          "internalType": "uint256[]",
          "name": "",
          "type": "uint256[]"
        }
      ],
      "stateMutability": "view",
      "type": "function"
    },
    {
      "inputs": [
        {
          "internalType": "uint256",
          "name": "leaseId",
          "type": "uint256"
        }
      ],
      "name": "getLease",
      "outputs": [
        {
          "components": [
            {
              "internalType": "uint256",
              "name": "leaseId",
              "type": "uint256"
            },
            {
              "internalType": "address",
              "name": "tenant",
              "type": "address"
            },
            {
              "internalType": "address",
              "name": "landlord",
              "type": "address"
            },
            {
              "internalType": "uint256",
              "name": "monthlyRent",
              "type": "uint256"
            },
            {
              "internalType": "uint256",
              "name": "dueDay",
              "type": "uint256"
            },
            {
              "internalType": "uint256",
              "name": "startDate",
              "type": "uint256"
            },
            {
              "internalType": "uint256",
              "name": "endDate",
              "type": "uint256"
            },
            {
              "internalType": "enum INomaTypes.LeaseStatus",
              "name": "status",
              "type": "uint8"
            },
            {
              "internalType": "uint256",
              "name": "totalPaid",
              "type": "uint256"
            },
            {
              "internalType": "uint256",
              "name": "paymentCount",
              "type": "uint256"
            }
          ],
          "internalType": "struct INomaTypes.Lease",
          "name": "",
          "type": "tuple"
        }
      ],
      "stateMutability": "view",
      "type": "function"
    },
    {
      "inputs": [
        {
          "internalType": "uint256",
          "name": "leaseId",
          "type": "uint256"
        }
      ],
      "name": "getNextDueDate",
      "outputs": [
        {
          "internalType": "uint256",
          "name": "",
          "type": "uint256"
        }
      ],
      "stateMutability": "view",
      "type": "function"
    },
    {
      "inputs": [
        {
          "internalType": "address",
          "name": "tenant",
          "type": "address"
        }
      ],
      "name": "getTenantLeases",
      "outputs": [
        {
          "internalType": "uint256[]",
          "name": "",
          "type": "uint256[]"
        }
      ],
      "stateMutability": "view",
      "type": "function"
    },
    {
      "inputs": [
        {
          "internalType": "address",
          "name": "owner",
          "type": "address"
        },
        {
          "internalType": "address",
          "name": "operator",
          "type": "address"
        }
      ],
      "name": "isApprovedForAll",
      "outputs": [
        {
          "internalType": "bool",
          "name": "",
          "type": "bool"
        }
      ],
      "stateMutability": "view",
      "type": "function"
    },
    {
      "inputs": [
        {
          "internalType": "uint256",
          "name": "leaseId",
          "type": "uint256"
        }
      ],
      "name": "isLeaseActive",
      "outputs": [
        {
          "internalType": "bool",
          "name": "",
          "type": "bool"
        }
      ],
      "stateMutability": "view",
      "type": "function"
    },
    {
      "inputs": [
        {
          "internalType": "address",
          "name": "",
          "type": "address"
        },
        {
          "internalType": "uint256",
          "name": "",
          "type": "uint256"
        }
      ],
      "name": "landlordLeases",
      "outputs": [
        {
          "internalType": "uint256",
          "name": "",
          "type": "uint256"
        }
      ],
      "stateMutability": "view",
      "type": "function"
    },
    {
      "inputs": [
        {
          "internalType": "uint256",
          "name": "",
          "type": "uint256"
        }
      ],
      "name": "leases",
      "outputs": [
        {
          "internalType": "uint256",
          "name": "leaseId",
          "type": "uint256"
        },
        {
          "internalType": "address",
          "name": "tenant",
          "type": "address"
        },
        {
          "internalType": "address",
          "name": "landlord",
          "type": "address"
        },
        {
          "internalType": "uint256",
          "name": "monthlyRent",
          "type": "uint256"
        },
        {
          "internalType": "uint256",
          "name": "dueDay",
          "type": "uint256"
        },
        {
          "internalType": "uint256",
          "name": "startDate",
          "type": "uint256"
        },
        {
          "internalType": "uint256",
          "name": "endDate",
          "type": "uint256"
        },
        {
          "internalType": "enum INomaTypes.LeaseStatus",
          "name": "status",
          "type": "uint8"
        },
        {
          "internalType": "uint256",
          "name": "totalPaid",
          "type": "uint256"
        },
        {
          "internalType": "uint256",
          "name": "paymentCount",
          "type": "uint256"
        }
      ],
      "stateMutability": "view",
      "type": "function"
    },
    {
      "inputs": [],
      "name": "name",
      "outputs": [
        {
          "internalType": "string",
          "name": "",
          "type": "string"
        }
      ],
      "stateMutability": "view",
      "type": "function"
    },
    {
      "inputs": [],
      "name": "owner",
      "outputs": [
        {
          "internalType": "address",
          "name": "",
          "type": "address"
        }
      ],
      "stateMutability": "view",
      "type": "function"
    },
    {
      "inputs": [
        {
          "internalType": "uint256",
          "name": "tokenId",
          "type": "uint256"
        }
      ],
      "name": "ownerOf",
      "outputs": [
        {
          "internalType": "address",
          "name": "",
          "type": "address"
        }
      ],
      "stateMutability": "view",
      "type": "function"
    },
    {
      "inputs": [],
      "name": "paymentContract",
      "outputs": [
        {
          "internalType": "address",
          "name": "",
          "type": "address"
        }
      ],
      "stateMutability": "view",
      "type": "function"
    },
    {
      "inputs": [
        {
          "internalType": "uint256",
          "name": "leaseId",
          "type": "uint256"
        },
        {
          "internalType": "uint256",
          "name": "amount",
          "type": "uint256"
        }
      ],
      "name": "recordPayment",
      "outputs": [],
      "stateMutability": "nonpayable",
      "type": "function"
    },
    {
      "inputs": [],
      "name": "renounceOwnership",
      "outputs": [],
      "stateMutability": "nonpayable",
      "type": "function"
    },
    {
      "inputs": [
        {
          "internalType": "address",
          "name": "from",
          "type": "address"
        },
        {
          "internalType": "address",
          "name": "to",
          "type": "address"
        },
        {
          "internalType": "uint256",
          "name": "tokenId",
          "type": "uint256"
        }
      ],
      "name": "safeTransferFrom",
      "outputs": [],
      "stateMutability": "nonpayable",
      "type": "function"
    },
    {
      "inputs": [
        {
          "internalType": "address",
          "name": "from",
          "type": "address"
        },
        {
          "internalType": "address",
          "name": "to",
          "type": "address"
        },
        {
          "internalType": "uint256",
          "name": "tokenId",
          "type": "uint256"
        },
        {
          "internalType": "bytes",
          "name": "data",
          "type": "bytes"
        }
      ],
      "name": "safeTransferFrom",
      "outputs": [],
      "stateMutability": "nonpayable",
      "type": "function"
    },
    {
      "inputs": [
        {
          "internalType": "address",
          "name": "operator",
          "type": "address"
        },
        {
          "internalType": "bool",
          "name": "approved",
          "type": "bool"
        }
      ],
      "name": "setApprovalForAll",
      "outputs": [],
      "stateMutability": "nonpayable",
      "type": "function"
    },
    {
      "inputs": [
        {
          "internalType": "address",
          "name": "_paymentContract",
          "type": "address"
        }
      ],
      "name": "setPaymentContract",
      "outputs": [],
      "stateMutability": "nonpayable",
      "type": "function"
    },
    {
      "inputs": [
        {
          "internalType": "bytes4",
          "name": "interfaceId",
          "type": "bytes4"
        }
      ],
      "name": "supportsInterface",
      "outputs": [
        {
          "internalType": "bool",
          "name": "",
          "type": "bool"
        }
      ],
      "stateMutability": "view",
      "type": "function"
    },
    {
      "inputs": [],
      "name": "symbol",
      "outputs": [
        {
          "internalType": "string",
          "name": "",
          "type": "string"
        }
      ],
      "stateMutability": "view",
      "type": "function"
    },
    {
      "inputs": [
        {
          "internalType": "address",
          "name": "",
          "type": "address"
        },
        {
          "internalType": "uint256",
          "name": "",
          "type": "uint256"
        }
      ],
      "name": "tenantLeases",
      "outputs": [
        {
          "internalType": "uint256",
          "name": "",
          "type": "uint256"
        }
      ],
      "stateMutability": "view",
      "type": "function"
    },
    {
      "inputs": [
        {
          "internalType": "uint256",
          "name": "leaseId",
          "type": "uint256"
        }
      ],
      "name": "terminateLease",
      "outputs": [],
      "stateMutability": "nonpayable",
      "type": "function"
    },
    {
      "inputs": [
        {
          "internalType": "uint256",
          "name": "tokenId",
          "type": "uint256"
        }
      ],
      "name": "tokenURI",
      "outputs": [
        {
          "internalType": "string",
          "name": "",
          "type": "string"
        }
      ],
      "stateMutability": "view",
      "type": "function"
    },
    {
      "inputs": [
        {
          "internalType": "address",
          "name": "from",
          "type": "address"
        },
        {
          "internalType": "address",
          "name": "to",
          "type": "address"
        },
        {
          "internalType": "uint256",
          "name": "tokenId",
          "type": "uint256"
        }
      ],
      "name": "transferFrom",
      "outputs": [],
      "stateMutability": "nonpayable",
      "type": "function"
    },
    {
      "inputs": [
        {
          "internalType": "address",
          "name": "newOwner",
          "type": "address"
        }
      ],
      "name": "transferOwnership",
      "outputs": [],
      "stateMutability": "nonpayable",
      "type": "function"
    }
  ],
  "transactionHash": "0xfd03515af3266aa98c029b5319df2e43d20d54c6e437fb8a06c8668528c48223",
  "args": [],
  "numDeployments": 1,
  "solcInputHash": "46b81ae9e1ea028be64b386a1387d251",
  "bytecode": "0x60806040523480156200001157600080fd5b50336040518060400160405280600a8152602001694e4f4d41204c6561736560b01b8152506040518060400160405280600a8152602001694e4f4d412d4c4541534560b01b81525081600090816200006a9190620001b9565b506001620000798282620001b9565b5050506001600160a01b038116620000ab57604051631e4fbdf760e01b81526000600482015260240160405180910390fd5b620000b681620000c2565b50600160085562000285565b600780546001600160a01b038381166001600160a01b0319831681179093556040519116919082907f8be0079c531659141344cd1fd0a4f28419497f9722a3daafe3b4186f6b6457e090600090a35050565b634e487b7160e01b600052604160045260246000fd5b600181811c908216806200013f57607f821691505b6020821081036200016057634e487b7160e01b600052602260045260246000fd5b50919050565b601f821115620001b457600081815260208120601f850160051c810160208610156200018f5750805b601f850160051c820191505b81811015620001b0578281556001016200019b565b5050505b505050565b81516001600160401b03811115620001d557620001d562000114565b620001ed81620001e684546200012a565b8462000166565b602080601f8311600181146200022557600084156200020c5750858301515b600019600386901b1c1916600185901b178555620001b0565b600085815260208120601f198616915b82811015620002565788860151825594840194600190910190840162000235565b5085821015620002755787850151600019600388901b60f8161c191681555b5050505050600190811b01905550565b611f0880620002956000396000f3fe608060405234801561001057600080fd5b50600436106101da5760003560e01c806386809a2811610104578063a22cb465116100a2578063e985e9c511610071578063e985e9c514610482578063f08b6a0314610495578063f2fde38b146104a8578063f7f75a97146104bb57600080fd5b8063a22cb46514610436578063b88d4fde14610449578063be35336a1461045c578063c87b56dd1461046f57600080fd5b80638da5cb5b116100de5780638da5cb5b146103ea57806395d89b41146103fb5780639c91dd56146104035780639f44657c1461041657600080fd5b806386809a281461033d5780638927a106146103505780638abb20cc146103d757600080fd5b8063404f90ae1161017c578063588e00a51161014b578063588e00a5146102fc5780636352211e1461030f57806370a0823114610322578063715018a61461033557600080fd5b8063404f90ae146102a257806342842e0e146102b5578063550252ac146102c857806357976894146102e957600080fd5b8063081812fc116101b8578063081812fc1461023c578063095ea7b3146102675780630b879bc21461027c57806323b872dd1461028f57600080fd5b806301ffc9a7146101df57806306fdde031461020757806307a783191461021c575b600080fd5b6101f26101ed366004611932565b6104ce565b60405190151581526020015b60405180910390f35b61020f6104df565b6040516101fe919061199f565b61022f61022a3660046119ce565b610571565b6040516101fe91906119e9565b61024f61024a366004611a2d565b6105dd565b6040516001600160a01b0390911681526020016101fe565b61027a610275366004611a46565b610606565b005b61027a61028a366004611a70565b610615565b61027a61029d366004611a92565b6106bf565b6101f26102b0366004611a2d565b61074f565b61027a6102c3366004611a92565b61077f565b6102db6102d6366004611a46565b61079f565b6040519081526020016101fe565b6102db6102f7366004611a46565b6107d0565b61027a61030a366004611a2d565b6107ec565b61024f61031d366004611a2d565b610943565b6102db6103303660046119ce565b61094e565b61027a610996565b6102db61034b366004611a2d565b6109aa565b6103c161035e366004611a2d565b6009602081905260009182526040909120805460018201546002830154600384015460048501546005860154600687015460078801546008890154989099015496986001600160a01b03968716989590961696939592949193909260ff1691908a565b6040516101fe9a99989796959493929190611b06565b61027a6103e53660046119ce565b610a16565b6007546001600160a01b031661024f565b61020f610a67565b600c5461024f906001600160a01b031681565b610429610424366004611a2d565b610a76565b6040516101fe9190611b68565b61027a610444366004611c00565b610b3a565b61027a610457366004611c52565b610b45565b6102db61046a366004611d2e565b610b5c565b61020f61047d366004611a2d565b610b6a565b6101f2610490366004611d61565b610b75565b61022f6104a33660046119ce565b610ba3565b61027a6104b63660046119ce565b610c0d565b6102db6104c9366004611d2e565b610c4b565b60006104d982610c59565b92915050565b6060600080546104ee90611d94565b80601f016020809104026020016040519081016040528092919081815260200182805461051a90611d94565b80156105675780601f1061053c57610100808354040283529160200191610567565b820191906000526020600020905b81548152906001019060200180831161054a57829003601f168201915b5050505050905090565b6001600160a01b0381166000908152600a60209081526040918290208054835181840281018401909452808452606093928301828280156105d157602002820191906000526020600020905b8154815260200190600101908083116105bd575b50505050509050919050565b60006105e882610c7e565b506000828152600460205260409020546001600160a01b03166104d9565b610611828233610cb7565b5050565b600c546001600160a01b0316331461063f576040516282b42960e81b815260040160405180910390fd5b600082815260096020526040812090600782015460ff16600281111561066757610667611ace565b146106855760405163864f9b8560e01b815260040160405180910390fd5b818160080160008282546106999190611de4565b9250508190555060018160090160008282546106b59190611de4565b9091555050505050565b6001600160a01b0382166106ee57604051633250574960e11b8152600060048201526024015b60405180910390fd5b60006106fb838333610cc4565b9050836001600160a01b0316816001600160a01b031614610749576040516364283d7b60e01b81526001600160a01b03808616600483015260248201849052821660448201526064016106e5565b50505050565b60008060008381526009602052604090206007015460ff16600281111561077857610778611ace565b1492915050565b61079a83838360405180602001604052806000815250610b45565b505050565b600b60205281600052604060002081815481106107bb57600080fd5b90600052602060002001600091509150505481565b600a60205281600052604060002081815481106107bb57600080fd5b600081815260096020526040902060018101548291906001600160a01b03163314801590610827575060028101546001600160a01b03163314155b15610844576040516282b42960e81b815260040160405180910390fd5b600083815260096020526040812090600782015460ff16600281111561086c5761086c611ace565b1461088a5760405163864f9b8560e01b815260040160405180910390fd5b60078101805460ff191660021790554260068201556040516f13115054d157d511549352539055115160821b81528490601001604080519182900382206001850154600886015460098701546001600160a01b039092166020860152928401929092526060830191909152907f24dae94385c9aa4ee70d42172eb2ccbc9f8e6f09eedd940918dcd46e5563abf99060800160408051601f19818403018152908290526109359161199f565b60405180910390a350505050565b60006104d982610c7e565b60006001600160a01b03821661097a576040516322718ad960e21b8152600060048201526024016106e5565b506001600160a01b031660009081526003602052604090205490565b61099e610dbd565b6109a86000610dea565b565b6000818152600960205260408120816109c662278d0042611df7565b905060008260040154620151806109dd9190611e19565b6109ea8362278d00611e19565b6109f49190611de4565b905080421115610a0e57610a0b62278d0082611de4565b90505b949350505050565b610a1e610dbd565b6001600160a01b038116610a455760405163e6c4247b60e01b815260040160405180910390fd5b600c80546001600160a01b0319166001600160a01b0392909216919091179055565b6060600180546104ee90611d94565b610a7e6118a6565b6000828152600960209081526040918290208251610140810184528154815260018201546001600160a01b0390811693820193909352600280830154909316938101939093526003810154606084015260048101546080840152600581015460a0840152600681015460c08401526007810154909160e084019160ff1690811115610b0b57610b0b611ace565b6002811115610b1c57610b1c611ace565b81526008820154602082015260099091015460409091015292915050565b610611338383610e3c565b610b508484846106bf565b61074984848484610edb565b6000610a0e33858585611004565b60606104d98261130a565b6001600160a01b03918216600090815260056020908152604080832093909416825291909152205460ff1690565b6001600160a01b0381166000908152600b60209081526040918290208054835181840281018401909452808452606093928301828280156105d157602002820191906000526020600020908154815260200190600101908083116105bd5750505050509050919050565b610c15610dbd565b6001600160a01b038116610c3f57604051631e4fbdf760e01b8152600060048201526024016106e5565b610c4881610dea565b50565b6000610a0e84338585611004565b60006001600160e01b03198216632483248360e11b14806104d957506104d982611413565b6000818152600260205260408120546001600160a01b0316806104d957604051637e27328960e01b8152600481018490526024016106e5565b61079a8383836001611463565b6000828152600260205260408120546001600160a01b0390811690831615610cf157610cf1818486611569565b6001600160a01b03811615610d2f57610d0e600085600080611463565b6001600160a01b038116600090815260036020526040902080546000190190555b6001600160a01b03851615610d5e576001600160a01b0385166000908152600360205260409020805460010190555b60008481526002602052604080822080546001600160a01b0319166001600160a01b0389811691821790925591518793918516917fddf252ad1be2c89b69c2b068fc378daa952ba7f163c4a11628f55a4df523b3ef91a4949350505050565b6007546001600160a01b031633146109a85760405163118cdaa760e01b81523360048201526024016106e5565b600780546001600160a01b038381166001600160a01b0319831681179093556040519116919082907f8be0079c531659141344cd1fd0a4f28419497f9722a3daafe3b4186f6b6457e090600090a35050565b6001600160a01b038216610e6e57604051630b61174360e31b81526001600160a01b03831660048201526024016106e5565b6001600160a01b03838116600081815260056020908152604080832094871680845294825291829020805460ff191686151590811790915591519182527f17307eab39ab6107e8899845ad3d59bd9653f200f220920489ca2b5937696c31910160405180910390a3505050565b6001600160a01b0383163b1561074957604051630a85bd0160e11b81526001600160a01b0384169063150b7a0290610f1d903390889087908790600401611e30565b6020604051808303816000875af1925050508015610f58575060408051601f3d908101601f19168201909252610f5591810190611e6d565b60015b610fc1573d808015610f86576040519150601f19603f3d011682016040523d82523d6000602084013e610f8b565b606091505b508051600003610fb957604051633250574960e11b81526001600160a01b03851660048201526024016106e5565b805181602001fd5b6001600160e01b03198116630a85bd0160e11b14610ffd57604051633250574960e11b81526001600160a01b03851660048201526024016106e5565b5050505050565b60006001600160a01b038516158061102357506001600160a01b038416155b156110415760405163e6c4247b60e01b815260040160405180910390fd5b60018210806110505750601c82115b1561106e576040516301d32a6760e21b815260040160405180910390fd5b8260000361108f5760405163413551b160e11b815260040160405180910390fd5b6008805490600061109f83611e8a565b919050559050604051806101400160405280828152602001866001600160a01b03168152602001856001600160a01b03168152602001848152602001838152602001428152602001600081526020016000600281111561110157611101611ace565b815260006020808301829052604092830182905284825260098152908290208351815590830151600180830180546001600160a01b039384166001600160a01b0319918216179091559385015160028085018054929094169190951617909155606084015160038301556080840151600483015560a0840151600583015560c0840151600683015560e084015160078301805493949193909260ff199091169184908111156111b2576111b2611ace565b02179055506101008201516008820155610120909101516009909101556001600160a01b038086166000908152600a60209081526040808320805460018181018355918552838520018690559388168352600b8252822080549384018155825290200181905561122285826115cd565b836001600160a01b0316856001600160a01b0316827fcfc95e662eaa26d0f497338b82a72f20874a868726aeb89cacb6ef31ac36d11c8686604051611271929190918252602082015260400190565b60405180910390a4604051684e45575f4c4541534560b81b81528190600901604080519182900382206001600160a01b03808a16602085015288169183019190915260608201869052907f24dae94385c9aa4ee70d42172eb2ccbc9f8e6f09eedd940918dcd46e5563abf99060800160408051601f19818403018152908290526112fa9161199f565b60405180910390a3949350505050565b606061131582610c7e565b506000828152600660205260408120805461132f90611d94565b80601f016020809104026020016040519081016040528092919081815260200182805461135b90611d94565b80156113a85780601f1061137d576101008083540402835291602001916113a8565b820191906000526020600020905b81548152906001019060200180831161138b57829003601f168201915b5050505050905060006113c660408051602081019091526000815290565b905080516000036113d8575092915050565b81511561140a5780826040516020016113f2929190611ea3565b60405160208183030381529060405292505050919050565b610a0e846115e7565b60006001600160e01b031982166380ac58cd60e01b148061144457506001600160e01b03198216635b5e139f60e01b145b806104d957506301ffc9a760e01b6001600160e01b03198316146104d9565b808061147757506001600160a01b03821615155b1561153957600061148784610c7e565b90506001600160a01b038316158015906114b35750826001600160a01b0316816001600160a01b031614155b80156114c657506114c48184610b75565b155b156114ef5760405163a9fbf51f60e01b81526001600160a01b03841660048201526024016106e5565b81156115375783856001600160a01b0316826001600160a01b03167f8c5be1e5ebec7d5bd14f71427d1e84f3dd0314c0f7b2291e5b200ac8c7c3b92560405160405180910390a45b505b5050600090815260046020526040902080546001600160a01b0319166001600160a01b0392909216919091179055565b61157483838361165c565b61079a576001600160a01b0383166115a257604051637e27328960e01b8152600481018290526024016106e5565b60405163177e802f60e01b81526001600160a01b0383166004820152602481018290526044016106e5565b6106118282604051806020016040528060008152506116bf565b60606115f282610c7e565b50600061160a60408051602081019091526000815290565b9050600081511161162a5760405180602001604052806000815250611655565b80611634846116d6565b604051602001611645929190611ea3565b6040516020818303038152906040525b9392505050565b60006001600160a01b03831615801590610a0e5750826001600160a01b0316846001600160a01b0316148061169657506116968484610b75565b80610a0e5750506000908152600460205260409020546001600160a01b03908116911614919050565b6116c98383611769565b61079a6000848484610edb565b606060006116e3836117ce565b600101905060008167ffffffffffffffff81111561170357611703611c3c565b6040519080825280601f01601f19166020018201604052801561172d576020820181803683370190505b5090508181016020015b600019016f181899199a1a9b1b9c1cb0b131b232b360811b600a86061a8153600a850494508461173757509392505050565b6001600160a01b03821661179357604051633250574960e11b8152600060048201526024016106e5565b60006117a183836000610cc4565b90506001600160a01b0381161561079a576040516339e3563760e11b8152600060048201526024016106e5565b60008072184f03e93ff9f4daa797ed6e38ed64bf6a1f0160401b831061180d5772184f03e93ff9f4daa797ed6e38ed64bf6a1f0160401b830492506040015b6d04ee2d6d415b85acef81000000008310611839576d04ee2d6d415b85acef8100000000830492506020015b662386f26fc10000831061185757662386f26fc10000830492506010015b6305f5e100831061186f576305f5e100830492506008015b612710831061188357612710830492506004015b60648310611895576064830492506002015b600a83106104d95760010192915050565b6040518061014001604052806000815260200160006001600160a01b0316815260200160006001600160a01b03168152602001600081526020016000815260200160008152602001600081526020016000600281111561190857611908611ace565b815260200160008152602001600081525090565b6001600160e01b031981168114610c4857600080fd5b60006020828403121561194457600080fd5b81356116558161191c565b60005b8381101561196a578181015183820152602001611952565b50506000910152565b6000815180845261198b81602086016020860161194f565b601f01601f19169290920160200192915050565b6020815260006116556020830184611973565b80356001600160a01b03811681146119c957600080fd5b919050565b6000602082840312156119e057600080fd5b611655826119b2565b6020808252825182820181905260009190848201906040850190845b81811015611a2157835183529284019291840191600101611a05565b50909695505050505050565b600060208284031215611a3f57600080fd5b5035919050565b60008060408385031215611a5957600080fd5b611a62836119b2565b946020939093013593505050565b60008060408385031215611a8357600080fd5b50508035926020909101359150565b600080600060608486031215611aa757600080fd5b611ab0846119b2565b9250611abe602085016119b2565b9150604084013590509250925092565b634e487b7160e01b600052602160045260246000fd5b60038110611b0257634e487b7160e01b600052602160045260246000fd5b9052565b8a81526001600160a01b038a8116602083015289166040820152606081018890526080810187905260a0810186905260c081018590526101408101611b4e60e0830186611ae4565b610100820193909352610120015298975050505050505050565b81518152602080830151610140830191611b8c908401826001600160a01b03169052565b506040830151611ba760408401826001600160a01b03169052565b50606083015160608301526080830151608083015260a083015160a083015260c083015160c083015260e0830151611be260e0840182611ae4565b50610100838101519083015261012092830151929091019190915290565b60008060408385031215611c1357600080fd5b611c1c836119b2565b915060208301358015158114611c3157600080fd5b809150509250929050565b634e487b7160e01b600052604160045260246000fd5b60008060008060808587031215611c6857600080fd5b611c71856119b2565b9350611c7f602086016119b2565b925060408501359150606085013567ffffffffffffffff80821115611ca357600080fd5b818701915087601f830112611cb757600080fd5b813581811115611cc957611cc9611c3c565b604051601f8201601f19908116603f01168101908382118183101715611cf157611cf1611c3c565b816040528281528a6020848701011115611d0a57600080fd5b82602086016020830137600060208483010152809550505050505092959194509250565b600080600060608486031215611d4357600080fd5b611d4c846119b2565b95602085013595506040909401359392505050565b60008060408385031215611d7457600080fd5b611d7d836119b2565b9150611d8b602084016119b2565b90509250929050565b600181811c90821680611da857607f821691505b602082108103611dc857634e487b7160e01b600052602260045260246000fd5b50919050565b634e487b7160e01b600052601160045260246000fd5b808201808211156104d9576104d9611dce565b600082611e1457634e487b7160e01b600052601260045260246000fd5b500490565b80820281158282048414176104d9576104d9611dce565b6001600160a01b0385811682528416602082015260408101839052608060608201819052600090611e6390830184611973565b9695505050505050565b600060208284031215611e7f57600080fd5b81516116558161191c565b600060018201611e9c57611e9c611dce565b5060010190565b60008351611eb581846020880161194f565b835190830190611ec981836020880161194f565b0194935050505056fea26469706673582212207edd51a253c10cdc5a4ff10ad804bb3aa5a4d4eb15cce7c1491a8a5da80522b864736f6c63430008140033",
  "devdoc": {
    "details": "Each lease is minted as an NFT owned by the tenant                         LEASE NFT                                         Lease ID: #1234                                             Tenant: 0x...abc                                            Landlord: 0x...def                                          Monthly Rent: 1,500 USDC                                    Due Day: 1st of month                                       Status: Active                                              Payments: 6 | Reputation: Trusted                              ",
    "errors": {
      "ERC721IncorrectOwner(address,uint256,address)": [
        {
          "details": "Indicates an error related to the ownership over a particular token. Used in transfers.",
          "params": {
            "owner": "Address of the current owner of a token.",
            "sender": "Address whose tokens are being transferred.",
            "tokenId": "Identifier number of a token."
          }
        }
      ],
      "ERC721InsufficientApproval(address,uint256)": [
        {
          "details": "Indicates a failure with the `operator`s approval. Used in transfers.",
          "params": {
            "operator": "Address that may be allowed to operate on tokens without being their owner.",
            "tokenId": "Identifier number of a token."
          }
        }
      ],
      "ERC721InvalidApprover(address)": [
        {
          "details": "Indicates a failure with the `approver` of a token to be approved. Used in approvals.",
          "params": {
            "approver": "Address initiating an approval operation."
          }
        }
      ],
      "ERC721InvalidOperator(address)": [
        {
          "details": "Indicates a failure with the `operator` to be approved. Used in approvals.",
          "params": {
            "operator": "Address that may be allowed to operate on tokens without being their owner."
          }
        }
      ],
      "ERC721InvalidOwner(address)": [
        {
          "details": "Indicates that an address can't be an owner. For example, `address(0)` is a forbidden owner in EIP-20. Used in balance queries.",
          "params": {
            "owner": "Address of the current owner of a token."
          }
        }
      ],
      "ERC721InvalidReceiver(address)": [
        {
          "details": "Indicates a failure with the token `receiver`. Used in transfers.",
          "params": {
            "receiver": "Address to which tokens are being transferred."
          }
        }
      ],
      "ERC721InvalidSender(address)": [
        {
          "details": "Indicates a failure with the token `sender`. Used in transfers.",
          "params": {
            "sender": "Address whose tokens are being transferred."
          }
        }
      ],
      "ERC721NonexistentToken(uint256)": [
        {
          "details": "Indicates a `tokenId` whose `owner` is the zero address.",
          "params": {
            "tokenId": "Identifier number of a token."
          }
        }
      ],
      "OwnableInvalidOwner(address)": [
        {
          "details": "The owner is not a valid owner account. (eg. `address(0)`)"
        }
      ],
      "OwnableUnauthorizedAccount(address)": [
        {
          "details": "The caller account is not authorized to perform an operation."
        }
      ]
    },
    "events": {
      "Approval(address,address,uint256)": {
        "details": "Emitted when `owner` enables `approved` to manage the `tokenId` token."
      },
      "ApprovalForAll(address,address,bool)": {
        "details": "Emitted when `owner` enables or disables (`approved`) `operator` to manage all of its assets."
      },
      "BatchMetadataUpdate(uint256,uint256)": {
        "details": "This event emits when the metadata of a range of tokens is changed. So that the third-party platforms such as NFT market could timely update the images and related attributes of the NFTs."
      },
      "MetadataUpdate(uint256)": {
        "details": "This event emits when the metadata of a token is changed. So that the third-party platforms such as NFT market could timely update the images and related attributes of the NFT."
      },
      "Transfer(address,address,uint256)": {
        "details": "Emitted when `tokenId` token is transferred from `from` to `to`."
      }
    },
    "kind": "dev",
    "methods": {
      "approve(address,uint256)": {
        "details": "See {IERC721-approve}."
      },
      "balanceOf(address)": {
        "details": "See {IERC721-balanceOf}."
      },
      "createLeaseAsLandlord(address,uint256,uint256)": {
        "params": {
          "dueDay": "Day of month rent is due (1-28)",
          "monthlyRent": "Monthly rent amount in USDC (6 decimals)",
          "tenant": "Address of the tenant"
        },
        "returns": {
          "leaseId": "The ID of the created lease"
        }
      },
      "createLeaseAsTenant(address,uint256,uint256)": {
        "params": {
          "dueDay": "Day of month rent is due (1-28)",
          "landlord": "Address of the landlord",
          "monthlyRent": "Monthly rent amount in USDC (6 decimals)"
        },
        "returns": {
          "leaseId": "The ID of the created lease"
        }
      },
      "getApproved(uint256)": {
        "details": "See {IERC721-getApproved}."
      },
      "getLandlordLeases(address)": {
        "params": {
          "landlord": "The landlord address"
        },
        "returns": {
          "_0": "Array of lease IDs"
        }
      },
      "getLease(uint256)": {
        "params": {
          "leaseId": "The lease ID"
        },
        "returns": {
          "_0": "The lease data"
        }
      },
      "getNextDueDate(uint256)": {
        "params": {
          "leaseId": "The lease ID"
        },
        "returns": {
          "_0": "The next due date timestamp"
        }
      },
      "getTenantLeases(address)": {
        "params": {
          "tenant": "The tenant address"
        },
        "returns": {
          "_0": "Array of lease IDs"
        }
      },
      "isApprovedForAll(address,address)": {
        "details": "See {IERC721-isApprovedForAll}."
      },
      "isLeaseActive(uint256)": {
        "params": {
          "leaseId": "The lease ID"
        },
        "returns": {
          "_0": "True if lease is active"
        }
      },
      "name()": {
        "details": "See {IERC721Metadata-name}."
      },
      "owner()": {
        "details": "Returns the address of the current owner."
      },
      "ownerOf(uint256)": {
        "details": "See {IERC721-ownerOf}."
      },
      "recordPayment(uint256,uint256)": {
        "params": {
          "amount": "Amount paid",
          "leaseId": "The lease to update"
        }
      },
      "renounceOwnership()": {
        "details": "Leaves the contract without owner. It will not be possible to call `onlyOwner` functions. Can only be called by the current owner. NOTE: Renouncing ownership will leave the contract without an owner, thereby disabling any functionality that is only available to the owner."
      },
      "safeTransferFrom(address,address,uint256)": {
        "details": "See {IERC721-safeTransferFrom}."
      },
      "safeTransferFrom(address,address,uint256,bytes)": {
        "details": "See {IERC721-safeTransferFrom}."
      },
      "setApprovalForAll(address,bool)": {
        "details": "See {IERC721-setApprovalForAll}."
      },
      "setPaymentContract(address)": {
        "params": {
          "_paymentContract": "Address of the NomaPayment contract"
        }
      },
      "symbol()": {
        "details": "See {IERC721Metadata-symbol}."
      },
      "terminateLease(uint256)": {
        "params": {
          "leaseId": "The lease to terminate"
        }
      },
      "transferFrom(address,address,uint256)": {
        "details": "See {IERC721-transferFrom}."
      },
      "transferOwnership(address)": {
        "details": "Transfers ownership of the contract to a new account (`newOwner`). Can only be called by the current owner."
      }
    },
    "title": "LeaseNFT",
    "version": 1
  },
  "userdoc": {
    "events": {
      "AIAgentTrigger(string,uint256,bytes)": {
        "notice": "Emitted for AI agent trigger points"
      },
      "LeaseCreated(uint256,address,address,uint256,uint256)": {
        "notice": "Emitted when a new lease is created"
      },
      "PaymentSettled(uint256,uint256,uint256,string)": {
        "notice": "Emitted when payment is settled on Arc"
      },
      "RentPaid(uint256,uint256,address,uint256,bool,uint256)": {
        "notice": "Emitted when rent is paid"
      },
      "ReputationUpdated(address,uint256,uint8)": {
        "notice": "Emitted when reputation is updated"
      },
      "YieldRouted(uint256,uint256,string)": {
        "notice": "Emitted when yield is routed"
      }
    },
    "kind": "user",
    "methods": {
      "createLeaseAsLandlord(address,uint256,uint256)": {
        "notice": "Create a new lease as a landlord"
      },
      "createLeaseAsTenant(address,uint256,uint256)": {
        "notice": "Create a new lease as a tenant"
      },
      "getLandlordLeases(address)": {
        "notice": "Get all leases for a landlord"
      },
      "getLease(uint256)": {
        "notice": "Get lease details"
      },
      "getNextDueDate(uint256)": {
        "notice": "Get the current due date for a lease"
      },
      "getTenantLeases(address)": {
        "notice": "Get all leases for a tenant"
      },
      "isLeaseActive(uint256)": {
        "notice": "Check if lease is active"
      },
      "landlordLeases(address,uint256)": {
        "notice": "Mapping from landlord address to their lease IDs"
      },
      "leases(uint256)": {
        "notice": "Mapping from lease ID to lease data"
      },
      "paymentContract()": {
        "notice": "Payment contract address (authorized to update leases)"
      },
      "recordPayment(uint256,uint256)": {
        "notice": "Update lease payment data (called by payment contract)"
      },
      "setPaymentContract(address)": {
        "notice": "Set the payment contract address"
      },
      "tenantLeases(address,uint256)": {
        "notice": "Mapping from tenant address to their lease IDs"
      },
      "terminateLease(uint256)": {
        "notice": "Terminate a lease"
      }
    },
    "notice": "NFT representation of rental leases for the NOMA protocol",
    "version": 1
  },
  "storageLayout": {
    "storage": [
      {
        "astId": 1294,
        "contract": "contracts/LeaseNFT.sol:LeaseNFT",
        "label": "_name",
        "offset": 0,
        "slot": "0",
        "type": "t_string_storage"
      },
      {
        "astId": 1296,
        "contract": "contracts/LeaseNFT.sol:LeaseNFT",
        "label": "_symbol",
        "offset": 0,
        "slot": "1",
        "type": "t_string_storage"
      },
      {
        "astId": 1300,
        "contract": "contracts/LeaseNFT.sol:LeaseNFT",
        "label": "_owners",
        "offset": 0,
        "slot": "2",
        "type": "t_mapping(t_uint256,t_address)"
      },
      {
        "astId": 1304,
        "contract": "contracts/LeaseNFT.sol:LeaseNFT",
        "label": "_balances",
        "offset": 0,
        "slot": "3",
        "type": "t_mapping(t_address,t_uint256)"
      },
      {
        "astId": 1308,
        "contract": "contracts/LeaseNFT.sol:LeaseNFT",
        "label": "_tokenApprovals",
        "offset": 0,
        "slot": "4",
        "type": "t_mapping(t_uint256,t_address)"
      },
      {
        "astId": 1314,
        "contract": "contracts/LeaseNFT.sol:LeaseNFT",
        "label": "_operatorApprovals",
        "offset": 0,
        "slot": "5",
        "type": "t_mapping(t_address,t_mapping(t_address,t_bool))"
      },
      {
        "astId": 2433,
        "contract": "contracts/LeaseNFT.sol:LeaseNFT",
        "label": "_tokenURIs",
        "offset": 0,
        "slot": "6",
        "type": "t_mapping(t_uint256,t_string_storage)"
      },
      {
        "astId": 8,
        "contract": "contracts/LeaseNFT.sol:LeaseNFT",
        "label": "_owner",
        "offset": 0,
        "slot": "7",
        "type": "t_address"
      },
      {
        "astId": 4379,
        "contract": "contracts/LeaseNFT.sol:LeaseNFT",
        "label": "_leaseIdCounter",
        "offset": 0,
        "slot": "8",
        "type": "t_uint256"
      },
      {
        "astId": 4385,
        "contract": "contracts/LeaseNFT.sol:LeaseNFT",
        "label": "leases",
        "offset": 0,
        "slot": "9",
        "type": "t_mapping(t_uint256,t_struct(Lease)6894_storage)"
      },
      {
        "astId": 4391,
        "contract": "contracts/LeaseNFT.sol:LeaseNFT",
        "label": "tenantLeases",
        "offset": 0,
        "slot": "10",
        "type": "t_mapping(t_address,t_array(t_uint256)dyn_storage)"
      },
      {
        "astId": 4397,
        "contract": "contracts/LeaseNFT.sol:LeaseNFT",
        "label": "landlordLeases",
        "offset": 0,
        "slot": "11",
        "type": "t_mapping(t_address,t_array(t_uint256)dyn_storage)"
      },
      {
        "astId": 4400,
        "contract": "contracts/LeaseNFT.sol:LeaseNFT",
        "label": "paymentContract",
        "offset": 0,
        "slot": "12",
        "type": "t_address"
      }
    ],
    "types": {
      "t_address": {
        "encoding": "inplace",
        "label": "address",
        "numberOfBytes": "20"
      },
      "t_array(t_uint256)dyn_storage": {
        "base": "t_uint256",
        "encoding": "dynamic_array",
        "label": "uint256[]",
        "numberOfBytes": "32"
      },
      "t_bool": {
        "encoding": "inplace",
        "label": "bool",
        "numberOfBytes": "1"
      },
      "t_enum(LeaseStatus)6859": {
        "encoding": "inplace",
        "label": "enum INomaTypes.LeaseStatus",
        "numberOfBytes": "1"
      },
      "t_mapping(t_address,t_array(t_uint256)dyn_storage)": {
        "encoding": "mapping",
        "key": "t_address",
        "label": "mapping(address => uint256[])",
        "numberOfBytes": "32",
        "value": "t_array(t_uint256)dyn_storage"
      },
      "t_mapping(t_address,t_bool)": {
        "encoding": "mapping",
        "key": "t_address",
        "label": "mapping(address => bool)",
        "numberOfBytes": "32",
        "value": "t_bool"
      },
      "t_mapping(t_address,t_mapping(t_address,t_bool))": {
        "encoding": "mapping",
        "key": "t_address",
        "label": "mapping(address => mapping(address => bool))",
        "numberOfBytes": "32",
        "value": "t_mapping(t_address,t_bool)"
      },
      "t_mapping(t_address,t_uint256)": {
        "encoding": "mapping",
        "key": "t_address",
        "label": "mapping(address => uint256)",
        "numberOfBytes": "32",
        "value": "t_uint256"
      },
      "t_mapping(t_uint256,t_address)": {
        "encoding": "mapping",
        "key": "t_uint256",
        "label": "mapping(uint256 => address)",
        "numberOfBytes": "32",
        "value": "t_address"
      },
      "t_mapping(t_uint256,t_string_storage)": {
        "encoding": "mapping",
        "key": "t_uint256",
        "label": "mapping(uint256 => string)",
        "numberOfBytes": "32",
        "value": "t_string_storage"
      },
      "t_mapping(t_uint256,t_struct(Lease)6894_storage)": {
        "encoding": "mapping",
        "key": "t_uint256",
        "label": "mapping(uint256 => struct INomaTypes.Lease)",
        "numberOfBytes": "32",
        "value": "t_struct(Lease)6894_storage"
      },
      "t_string_storage": {
        "encoding": "bytes",
        "label": "string",
        "numberOfBytes": "32"
      },
      "t_struct(Lease)6894_storage": {
        "encoding": "inplace",
        "label": "struct INomaTypes.Lease",
        "members": [
          {
            "astId": 6874,
            "contract": "contracts/LeaseNFT.sol:LeaseNFT",
            "label": "leaseId",
            "offset": 0,
            "slot": "0",
            "type": "t_uint256"
          },
          {
            "astId": 6876,
            "contract": "contracts/LeaseNFT.sol:LeaseNFT",
            "label": "tenant",
            "offset": 0,
            "slot": "1",
            "type": "t_address"
          },
          {
            "astId": 6878,
            "contract": "contracts/LeaseNFT.sol:LeaseNFT",
            "label": "landlord",
            "offset": 0,
            "slot": "2",
            "type": "t_address"
          },
          {
            "astId": 6880,
            "contract": "contracts/LeaseNFT.sol:LeaseNFT",
            "label": "monthlyRent",
            "offset": 0,
            "slot": "3",
            "type": "t_uint256"
          },
          {
            "astId": 6882,
            "contract": "contracts/LeaseNFT.sol:LeaseNFT",
            "label": "dueDay",
            "offset": 0,
            "slot": "4",
            "type": "t_uint256"
          },
          {
            "astId": 6884,
            "contract": "contracts/LeaseNFT.sol:LeaseNFT",
            "label": "startDate",
            "offset": 0,
            "slot": "5",
            "type": "t_uint256"
          },
          {
            "astId": 6886,
            "contract": "contracts/LeaseNFT.sol:LeaseNFT",
            "label": "endDate",
            "offset": 0,
            "slot": "6",
            "type": "t_uint256"
          },
          {
            "astId": 6889,
            "contract": "contracts/LeaseNFT.sol:LeaseNFT",
            "label": "status",
            "offset": 0,
            "slot": "7",
            "type": "t_enum(LeaseStatus)6859"
          },
          {
            "astId": 6891,
            "contract": "contracts/LeaseNFT.sol:LeaseNFT",
            "label": "totalPaid",
            "offset": 0,
            "slot": "8",
            "type": "t_uint256"
          },
          {
            "astId": 6893,
            "contract": "contracts/LeaseNFT.sol:LeaseNFT",
            "label": "paymentCount",
            "offset": 0,
            "slot": "9",
            "type": "t_uint256"
          }
        ],
        "numberOfBytes": "320"
      },
      "t_uint256": {
        "encoding": "inplace",
        "label": "uint256",
        "numberOfBytes": "32"
      }
    }
  }
}