{
  "address": "0xdF07D598dFb950A4bE8C43a2B72f84150aC9bBc4",
  "abi": [
    {
      "inputs": [
        {
          "internalType": "address",
          "name": "_usdc",
          "type": "address"
        }
      ],
      "stateMutability": "nonpayable",
      "type": "constructor"
    },
    {
      "inputs": [
        {
          "internalType": "address",
          "name": "target",
          "type": "address"
        }
      ],
      "name": "AddressEmptyCode",
      "type": "error"
    },
    {
      "inputs": [
        {
          "internalType": "address",
          "name": "account",
          "type": "address"
        }
      ],
      "name": "AddressInsufficientBalance",
      "type": "error"
    },
    {
      "inputs": [],
      "name": "FailedInnerCall",
      "type": "error"
    },
    {
      "inputs": [],
      "name": "InsufficientAllowance",
      "type": "error"
    },
    {
      "inputs": [],
      "name": "InsufficientBalance",
      "type": "error"
    },
    {
      "inputs": [],
      "name": "InvalidAmount",
      "type": "error"
    },
    {
      "inputs": [],
      "name": "LeaseNotActive",
      "type": "error"
    },
    {
      "inputs": [],
      "name": "NotTenant",
      "type": "error"
    },
    {
      "inputs": [
        {
          "internalType": "address",
          "name": "owner",
          "type": "address"
        }
      ],
      "name": "OwnableInvalidOwner",
      "type": "error"
    },
    {
      "inputs": [
        {
          "internalType": "address",
          "name": "account",
          "type": "address"
        }
      ],
      "name": "OwnableUnauthorizedAccount",
      "type": "error"
    },
    {
      "inputs": [],
      "name": "PaymentAlreadyMade",
      "type": "error"
    },
    {
      "inputs": [],
      "name": "ReentrancyGuardReentrantCall",
      "type": "error"
    },
    {
      "inputs": [
        {
          "internalType": "address",
          "name": "token",
          "type": "address"
        }
      ],
      "name": "SafeERC20FailedOperation",
      "type": "error"
    },
    {
      "anonymous": false,
      "inputs": [
        {
          "indexed": true,
          "internalType": "string",
          "name": "triggerType",
          "type": "string"
        },
        {
          "indexed": true,
          "internalType": "uint256",
          "name": "leaseId",
          "type": "uint256"
        },
        {
          "indexed": false,
          "internalType": "bytes",
          "name": "data",
          "type": "bytes"
        }
      ],
      "name": "AIAgentTrigger",
      "type": "event"
    },
    {
      "anonymous": false,
      "inputs": [
        {
          "indexed": true,
          "internalType": "uint256",
          "name": "leaseId",
          "type": "uint256"
        },
        {
          "indexed": true,
          "internalType": "address",
          "name": "tenant",
          "type": "address"
        },
        {
          "indexed": true,
          "internalType": "address",
          "name": "landlord",
          "type": "address"
        },
        {
          "indexed": false,
          "internalType": "uint256",
          "name": "monthlyRent",
          "type": "uint256"
        },
        {
          "indexed": false,
          "internalType": "uint256",
          "name": "dueDay",
          "type": "uint256"
        }
      ],
      "name": "LeaseCreated",
      "type": "event"
    },
    {
      "anonymous": false,
      "inputs": [
        {
          "indexed": true,
          "internalType": "address",
          "name": "previousOwner",
          "type": "address"
        },
        {
          "indexed": true,
          "internalType": "address",
          "name": "newOwner",
          "type": "address"
        }
      ],
      "name": "OwnershipTransferred",
      "type": "event"
    },
    {
      "anonymous": false,
      "inputs": [
        {
          "indexed": true,
          "internalType": "uint256",
          "name": "paymentId",
          "type": "uint256"
        },
        {
          "indexed": true,
          "internalType": "uint256",
          "name": "leaseId",
          "type": "uint256"
        },
        {
          "indexed": false,
          "internalType": "uint256",
          "name": "amount",
          "type": "uint256"
        },
        {
          "indexed": false,
          "internalType": "string",
          "name": "settlementChain",
          "type": "string"
        }
      ],
      "name": "PaymentSettled",
      "type": "event"
    },
    {
      "anonymous": false,
      "inputs": [
        {
          "indexed": true,
          "internalType": "uint256",
          "name": "leaseId",
          "type": "uint256"
        },
        {
          "indexed": true,
          "internalType": "uint256",
          "name": "paymentId",
          "type": "uint256"
        },
        {
          "indexed": true,
          "internalType": "address",
          "name": "tenant",
          "type": "address"
        },
        {
          "indexed": false,
          "internalType": "uint256",
          "name": "amount",
          "type": "uint256"
        },
        {
          "indexed": false,
          "internalType": "bool",
          "name": "isEarly",
          "type": "bool"
        },
        {
          "indexed": false,
          "internalType": "uint256",
          "name": "yieldEarned",
          "type": "uint256"
        }
      ],
      "name": "RentPaid",
      "type": "event"
    },
    {
      "anonymous": false,
      "inputs": [
        {
          "indexed": true,
          "internalType": "address",
          "name": "tenant",
          "type": "address"
        },
        {
          "indexed": false,
          "internalType": "uint256",
          "name": "newScore",
          "type": "uint256"
        },
        {
          "indexed": false,
          "internalType": "enum INomaTypes.ReputationTier",
          "name": "newTier",
          "type": "uint8"
        }
      ],
      "name": "ReputationUpdated",
      "type": "event"
    },
    {
      "anonymous": false,
      "inputs": [
        {
          "indexed": true,
          "internalType": "uint256",
          "name": "leaseId",
          "type": "uint256"
        },
        {
          "indexed": false,
          "internalType": "uint256",
          "name": "amount",
          "type": "uint256"
        },
        {
          "indexed": false,
          "internalType": "string",
          "name": "strategy",
          "type": "string"
        }
      ],
      "name": "YieldRouted",
      "type": "event"
    },
    {
      "inputs": [],
      "name": "SETTLEMENT_CHAIN",
      "outputs": [
        {
          "internalType": "string",
          "name": "",
          "type": "string"
        }
      ],
      "stateMutability": "view",
      "type": "function"
    },
    {
      "inputs": [
        {
          "internalType": "uint256",
          "name": "leaseId",
          "type": "uint256"
        }
      ],
      "name": "checkRentDue",
      "outputs": [
        {
          "internalType": "bool",
          "name": "isDue",
          "type": "bool"
        },
        {
          "internalType": "int256",
          "name": "daysUntilDue",
          "type": "int256"
        }
      ],
      "stateMutability": "view",
      "type": "function"
    },
    {
      "inputs": [
        {
          "internalType": "uint256",
          "name": "leaseId",
          "type": "uint256"
        }
      ],
      "name": "estimateEarlyPaymentYield",
      "outputs": [
        {
          "internalType": "uint256",
          "name": "",
          "type": "uint256"
        }
      ],
      "stateMutability": "view",
      "type": "function"
    },
    {
      "inputs": [
        {
          "internalType": "uint256",
          "name": "leaseId",
          "type": "uint256"
        }
      ],
      "name": "getLeasePayments",
      "outputs": [
        {
          "internalType": "uint256[]",
          "name": "",
          "type": "uint256[]"
        }
      ],
      "stateMutability": "view",
      "type": "function"
    },
    {
      "inputs": [
        {
          "internalType": "uint256",
          "name": "paymentId",
          "type": "uint256"
        }
      ],
      "name": "getPayment",
      "outputs": [
        {
          "components": [
            {
              "internalType": "uint256",
              "name": "paymentId",
              "type": "uint256"
            },
            {
              "internalType": "uint256",
              "name": "leaseId",
              "type": "uint256"
            },
            {
              "internalType": "uint256",
              "name": "amount",
              "type": "uint256"
            },
            {
              "internalType": "uint256",
              "name": "dueDate",
              "type": "uint256"
            },
            {
              "internalType": "uint256",
              "name": "paidDate",
              "type": "uint256"
            },
            {
              "internalType": "enum INomaTypes.PaymentStatus",
              "name": "status",
              "type": "uint8"
            },
            {
              "internalType": "bool",
              "name": "isEarly",
              "type": "bool"
            },
            {
              "internalType": "uint256",
              "name": "yieldEarned",
              "type": "uint256"
            }
          ],
          "internalType": "struct INomaTypes.RentPayment",
          "name": "",
          "type": "tuple"
        }
      ],
      "stateMutability": "view",
      "type": "function"
    },
    {
      "inputs": [
        {
          "internalType": "uint256",
          "name": "leaseId",
          "type": "uint256"
        }
      ],
      "name": "getPaymentHistory",
      "outputs": [
        {
          "components": [
            {
              "internalType": "uint256",
              "name": "paymentId",
              "type": "uint256"
            },
            {
              "internalType": "uint256",
              "name": "leaseId",
              "type": "uint256"
            },
            {
              "internalType": "uint256",
              "name": "amount",
              "type": "uint256"
            },
            {
              "internalType": "uint256",
              "name": "dueDate",
              "type": "uint256"
            },
            {
              "internalType": "uint256",
              "name": "paidDate",
              "type": "uint256"
            },
            {
              "internalType": "enum INomaTypes.PaymentStatus",
              "name": "status",
              "type": "uint8"
            },
            {
              "internalType": "bool",
              "name": "isEarly",
              "type": "bool"
            },
            {
              "internalType": "uint256",
              "name": "yieldEarned",
              "type": "uint256"
            }
          ],
          "internalType": "struct INomaTypes.RentPayment[]",
          "name": "",
          "type": "tuple[]"
        }
      ],
      "stateMutability": "view",
      "type": "function"
    },
    {
      "inputs": [],
      "name": "gracePeriod",
      "outputs": [
        {
          "internalType": "uint256",
          "name": "",
          "type": "uint256"
        }
      ],
      "stateMutability": "view",
      "type": "function"
    },
    {
      "inputs": [],
      "name": "leaseNFT",
      "outputs": [
        {
          "internalType": "contract LeaseNFT",
          "name": "",
          "type": "address"
        }
      ],
      "stateMutability": "view",
      "type": "function"
    },
    {
      "inputs": [
        {
          "internalType": "uint256",
          "name": "",
          "type": "uint256"
        },
        {
          "internalType": "uint256",
          "name": "",
          "type": "uint256"
        }
      ],
      "name": "leasePayments",
      "outputs": [
        {
          "internalType": "uint256",
          "name": "",
          "type": "uint256"
        }
      ],
      "stateMutability": "view",
      "type": "function"
    },
    {
      "inputs": [],
      "name": "owner",
      "outputs": [
        {
          "internalType": "address",
          "name": "",
          "type": "address"
        }
      ],
      "stateMutability": "view",
      "type": "function"
    },
    {
      "inputs": [
        {
          "internalType": "uint256",
          "name": "leaseId",
          "type": "uint256"
        }
      ],
      "name": "payRent",
      "outputs": [
        {
          "internalType": "uint256",
          "name": "paymentId",
          "type": "uint256"
        }
      ],
      "stateMutability": "nonpayable",
      "type": "function"
    },
    {
      "inputs": [
        {
          "internalType": "uint256",
          "name": "leaseId",
          "type": "uint256"
        },
        {
          "internalType": "uint256",
          "name": "amount",
          "type": "uint256"
        }
      ],
      "name": "payRentCustomAmount",
      "outputs": [
        {
          "internalType": "uint256",
          "name": "paymentId",
          "type": "uint256"
        }
      ],
      "stateMutability": "nonpayable",
      "type": "function"
    },
    {
      "inputs": [
        {
          "internalType": "uint256",
          "name": "",
          "type": "uint256"
        }
      ],
      "name": "payments",
      "outputs": [
        {
          "internalType": "uint256",
          "name": "paymentId",
          "type": "uint256"
        },
        {
          "internalType": "uint256",
          "name": "leaseId",
          "type": "uint256"
        },
        {
          "internalType": "uint256",
          "name": "amount",
          "type": "uint256"
        },
        {
          "internalType": "uint256",
          "name": "dueDate",
          "type": "uint256"
        },
        {
          "internalType": "uint256",
          "name": "paidDate",
          "type": "uint256"
        },
        {
          "internalType": "enum INomaTypes.PaymentStatus",
          "name": "status",
          "type": "uint8"
        },
        {
          "internalType": "bool",
          "name": "isEarly",
          "type": "bool"
        },
        {
          "internalType": "uint256",
          "name": "yieldEarned",
          "type": "uint256"
        }
      ],
      "stateMutability": "view",
      "type": "function"
    },
    {
      "inputs": [],
      "name": "renounceOwnership",
      "outputs": [],
      "stateMutability": "nonpayable",
      "type": "function"
    },
    {
      "inputs": [],
      "name": "reputation",
      "outputs": [
        {
          "internalType": "contract ReputationRegistry",
          "name": "",
          "type": "address"
        }
      ],
      "stateMutability": "view",
      "type": "function"
    },
    {
      "inputs": [
        {
          "internalType": "address",
          "name": "_leaseNFT",
          "type": "address"
        },
        {
          "internalType": "address",
          "name": "_vault",
          "type": "address"
        },
        {
          "internalType": "address",
          "name": "_reputation",
          "type": "address"
        }
      ],
      "name": "setContracts",
      "outputs": [],
      "stateMutability": "nonpayable",
      "type": "function"
    },
    {
      "inputs": [
        {
          "internalType": "uint256",
          "name": "_gracePeriod",
          "type": "uint256"
        }
      ],
      "name": "setGracePeriod",
      "outputs": [],
      "stateMutability": "nonpayable",
      "type": "function"
    },
    {
      "inputs": [
        {
          "internalType": "address",
          "name": "newOwner",
          "type": "address"
        }
      ],
      "name": "transferOwnership",
      "outputs": [],
      "stateMutability": "nonpayable",
      "type": "function"
    },
    {
      "inputs": [],
      "name": "usdc",
      "outputs": [
        {
          "internalType": "contract IERC20",
          "name": "",
          "type": "address"
        }
      ],
      "stateMutability": "view",
      "type": "function"
    },
    {
      "inputs": [],
      "name": "vault",
      "outputs": [
        {
          "internalType": "contract NomaVault",
          "name": "",
          "type": "address"
        }
      ],
      "stateMutability": "view",
      "type": "function"
    }
  ],
  "transactionHash": "0x99b86956c7a170b4773f74b58f0033efa3b12db81a7991f26f54979cd46048e3",
  "args": [
    "0x5FC8d32690cc91D4c39d9d3abcBD16989F875707"
  ],
  "numDeployments": 1,
  "solcInputHash": "46b81ae9e1ea028be64b386a1387d251",
  "bytecode": "0x60a0604052620697806008553480156200001857600080fd5b506040516200200c3803806200200c8339810160408190526200003b91620000da565b33806200006257604051631e4fbdf760e01b81526000600482015260240160405180910390fd5b6200006d816200008a565b5060018080556001600160a01b039091166080526005556200010c565b600080546001600160a01b038381166001600160a01b0319831681178455604051919092169283917f8be0079c531659141344cd1fd0a4f28419497f9722a3daafe3b4186f6b6457e09190a35050565b600060208284031215620000ed57600080fd5b81516001600160a01b03811681146200010557600080fd5b9392505050565b608051611eba620001526000396000818161017f01528181610a0b01528181610ab401528181610b6701528181610bb8015281816111d8015261123f0152611eba6000f3fe608060405234801561001057600080fd5b506004361061012c5760003560e01c8063a06db7dc116100ad578063d9e8843f11610071578063d9e8843f14610330578063eb9db11f14610343578063f2f6596014610356578063f2fde38b14610369578063fbfa77cf1461037c57600080fd5b8063a06db7dc146102c4578063b3066d49146102cd578063be95e22b146102e0578063c52164c61461030a578063cbe2870e1461031d57600080fd5b806376a57da9116100f457806376a57da9146101e35780637d4c7fca146101f657806387d81789146102255780638da5cb5b1461029257806396cf33a7146102a357600080fd5b80631c3af8c9146101315780633280a8361461015a5780633e413bee1461017a5780634e02503a146101b9578063715018a6146101d9575b600080fd5b61014461013f3660046119c5565b61038f565b60405161015191906119de565b60405180910390f35b61016d6101683660046119c5565b6103f1565b6040516101519190611ab0565b6101a17f000000000000000000000000000000000000000000000000000000000000000081565b6040516001600160a01b039091168152602001610151565b6101cc6101c73660046119c5565b6104a7565b6040516101519190611abf565b6101e1610662565b005b6002546101a1906001600160a01b031681565b6102186040518060400160405280600381526020016241726360e81b81525081565b6040516101519190611b52565b61027e6102333660046119c5565b6006602081905260009182526040909120805460018201546002830154600384015460048501546005860154959096015493959294919390929160ff80821692610100909204169088565b604051610151989796959493929190611b65565b6000546001600160a01b03166101a1565b6102b66102b13660046119c5565b610676565b604051908152602001610151565b6102b660085481565b6101e16102db366004611bc1565b6107ab565b6102f36102ee3660046119c5565b6107f2565b604080519215158352602083019190915201610151565b6004546101a1906001600160a01b031681565b6102b661032b366004611c0c565b6108d1565b6102b661033e3660046119c5565b610902565b6102b6610351366004611c0c565b6110c3565b6101e16103643660046119c5565b61166c565b6101e1610377366004611c2e565b611679565b6003546101a1906001600160a01b031681565b6000818152600760209081526040918290208054835181840281018401909452808452606093928301828280156103e557602002820191906000526020600020905b8154815260200190600101908083116103d1575b50505050509050919050565b6103f961196f565b600660008381526020019081526020016000206040518061010001604052908160008201548152602001600182015481526020016002820154815260200160038201548152602001600482015481526020016005820160009054906101000a900460ff16600381111561046e5761046e611a22565b600381111561047f5761047f611a22565b81526005820154610100900460ff161515602082015260069091015460409091015292915050565b60008181526007602090815260408083208054825181850281018501909352808352606094938301828280156104fc57602002820191906000526020600020905b8154815260200190600101908083116104e8575b505050505090506000815167ffffffffffffffff81111561051f5761051f611c4b565b60405190808252806020026020018201604052801561055857816020015b61054561196f565b81526020019060019003908161053d5790505b50905060005b825181101561065a576006600084838151811061057d5761057d611c61565b602002602001015181526020019081526020016000206040518061010001604052908160008201548152602001600182015481526020016002820154815260200160038201548152602001600482015481526020016005820160009054906101000a900460ff1660038111156105f5576105f5611a22565b600381111561060657610606611a22565b81526005820154610100900460ff1615156020820152600690910154604090910152825183908390811061063c5761063c611c61565b6020026020010181905250808061065290611c8d565b91505061055e565b509392505050565b61066a6116bc565b61067460006116e9565b565b6002546040516327d1195f60e21b81526004810183905260009182916001600160a01b0390911690639f44657c9060240161014060405180830381865afa1580156106c5573d6000803e3d6000fd5b505050506040513d601f19601f820116820180604052508101906106e99190611cf8565b905060006106fa8260800151611739565b905080421061070d575060009392505050565b60006201518061071d4284611d91565b6107279190611da4565b6003546060850151604051631fbbab9360e11b81526004810191909152602481018390529192506001600160a01b031690633f77572690604401602060405180830381865afa15801561077e573d6000803e3d6000fd5b505050506040513d601f19601f820116820180604052508101906107a29190611dc6565b95945050505050565b6107b36116bc565b600280546001600160a01b039485166001600160a01b031991821617909155600380549385169382169390931790925560048054919093169116179055565b6002546040516327d1195f60e21b815260048101839052600091829182916001600160a01b031690639f44657c9060240161014060405180830381865afa158015610841573d6000803e3d6000fd5b505050506040513d601f19601f820116820180604052508101906108659190611cf8565b905060006108768260800151611739565b90508042106108ab5760019350620151806108918242611d91565b61089b9190611da4565b6108a490611ddf565b92506108ca565b60009350620151806108bd4283611d91565b6108c79190611da4565b92505b5050915091565b600760205281600052604060002081815481106108ed57600080fd5b90600052602060002001600091509150505481565b600061090c611776565b6002546040516327d1195f60e21b8152600481018490526000916001600160a01b031690639f44657c9060240161014060405180830381865afa158015610957573d6000803e3d6000fd5b505050506040513d601f19601f8201168201806040525081019061097b9190611cf8565b905060008160e00151600281111561099557610995611a22565b146109b35760405163864f9b8560e01b815260040160405180910390fd5b80602001516001600160a01b0316336001600160a01b0316146109e9576040516394484cb360e01b815260040160405180910390fd5b6060810151604051636eb1769f60e11b815233600482015230602482015281907f00000000000000000000000000000000000000000000000000000000000000006001600160a01b03169063dd62ed3e90604401602060405180830381865afa158015610a5a573d6000803e3d6000fd5b505050506040513d601f19601f82011682018060405250810190610a7e9190611dc6565b1015610a9d576040516313be252b60e01b815260040160405180910390fd5b6040516370a0823160e01b815233600482015281907f00000000000000000000000000000000000000000000000000000000000000006001600160a01b0316906370a0823190602401602060405180830381865afa158015610b03573d6000803e3d6000fd5b505050506040513d601f19601f82011682018060405250810190610b279190611dc6565b1015610b4657604051631e9acf1760e31b815260040160405180910390fd5b6000610b558360800151611739565b9050428111610b8f6001600160a01b037f0000000000000000000000000000000000000000000000000000000000000000163330866117a0565b60035460405163095ea7b360e01b81526001600160a01b039182166004820152602481018590527f00000000000000000000000000000000000000000000000000000000000000009091169063095ea7b3906044016020604051808303816000875af1158015610c03573d6000803e3d6000fd5b505050506040513d601f19601f82011682018060405250810190610c279190611dfb565b50600354604051630d8e084360e01b8152600481018890526024810185905282151560448201526000916001600160a01b031690630d8e0843906064016020604051808303816000875af1158015610c83573d6000803e3d6000fd5b505050506040513d601f19601f82011682018060405250810190610ca79190611dc6565b600580549192506000610cb983611c8d565b919050559550600082610ce857600854610cd39085611e1d565b421115610ce1576002610ceb565b6001610ceb565b60015b9050604051806101000160405280888152602001898152602001868152602001858152602001428152602001826003811115610d2957610d29611a22565b815260200184151581526020018381525060066000898152602001908152602001600020600082015181600001556020820151816001015560408201518160020155606082015181600301556080820151816004015560a08201518160050160006101000a81548160ff02191690836003811115610da957610da9611a22565b021790555060c08201516005820180549115156101000261ff001990921691909117905560e09091015160069091015560008881526007602090815260408083208054600181018255908452919092200188905560025490516305c3cde160e11b8152600481018a9052602481018790526001600160a01b0390911690630b879bc290604401600060405180830381600087803b158015610e4957600080fd5b505af1158015610e5d573d6000803e3d6000fd5b505060045460208901516001600160a01b03909116925063e7e40df891508a866002866003811115610e9157610e91611a22565b6040516001600160e01b031960e088901b1681526001600160a01b03909516600486015260248501939093529015156044840152146064820152608401600060405180830381600087803b158015610ee857600080fd5b505af1158015610efc573d6000803e3d6000fd5b5050505085602001516001600160a01b031687897f12dcefc365f698e7bdbcee60f85f336c8a69b11c847b5b46af13d1807b301ddd888787604051610f54939291909283529015156020830152604082015260600190565b60405180910390a487877f429752043da5fce085d1ecc7544abd57d4febf6eba7252106f0c44a9f2a832ee876040518060400160405280600381526020016241726360e81b815250604051610faa929190611e30565b60405180910390a36040516f1410565351539517d49150d15255915160821b8152889060100160408051918290038220602083018b9052908201889052851515606083015260808201859052907f24dae94385c9aa4ee70d42172eb2ccbc9f8e6f09eedd940918dcd46e5563abf99060a00160408051601f198184030181529082905261103691611b52565b60405180910390a36003546040878101519051634beaf7d560e01b8152600481018b90526001600160a01b03918216602482015260448101889052911690634beaf7d590606401600060405180830381600087803b15801561109757600080fd5b505af11580156110ab573d6000803e3d6000fd5b505050505050505050506110be60018055565b919050565b60006110cd611776565b816000036110ee5760405163162908e360e11b815260040160405180910390fd5b6002546040516327d1195f60e21b8152600481018590526000916001600160a01b031690639f44657c9060240161014060405180830381865afa158015611139573d6000803e3d6000fd5b505050506040513d601f19601f8201168201806040525081019061115d9190611cf8565b905060008160e00151600281111561117757611177611a22565b146111955760405163864f9b8560e01b815260040160405180910390fd5b80602001516001600160a01b0316336001600160a01b0316146111cb576040516394484cb360e01b815260040160405180910390fd5b6112006001600160a01b037f0000000000000000000000000000000000000000000000000000000000000000163330866117a0565b600061120f8260800151611739565b60035460405163095ea7b360e01b81526001600160a01b03918216600482015260248101879052919250428311917f00000000000000000000000000000000000000000000000000000000000000009091169063095ea7b3906044016020604051808303816000875af115801561128a573d6000803e3d6000fd5b505050506040513d601f19601f820116820180604052508101906112ae9190611dfb565b50600354604051630d8e084360e01b8152600481018890526024810187905282151560448201526000916001600160a01b031690630d8e0843906064016020604051808303816000875af115801561130a573d6000803e3d6000fd5b505050506040513d601f19601f8201168201806040525081019061132e9190611dc6565b60058054919250600061134083611c8d565b9190505594506040518061010001604052808681526020018881526020018781526020018481526020014281526020016001600381111561138357611383611a22565b815260200183151581526020018281525060066000878152602001908152602001600020600082015181600001556020820151816001015560408201518160020155606082015181600301556080820151816004015560a08201518160050160006101000a81548160ff0219169083600381111561140357611403611a22565b021790555060c08201516005820180549115156101000261ff001990921691909117905560e09091015160069091015560008781526007602090815260408083208054600181018255908452919092200186905560025490516305c3cde160e11b815260048101899052602481018890526001600160a01b0390911690630b879bc290604401600060405180830381600087803b1580156114a357600080fd5b505af11580156114b7573d6000803e3d6000fd5b5050600480546020880151604051631cfc81bf60e31b81526001600160a01b0391821693810193909352602483018c905286151560448401526000606484015216925063e7e40df89150608401600060405180830381600087803b15801561151e57600080fd5b505af1158015611532573d6000803e3d6000fd5b5050505083602001516001600160a01b031685887f12dcefc365f698e7bdbcee60f85f336c8a69b11c847b5b46af13d1807b301ddd89868660405161158a939291909283529015156020830152604082015260600190565b60405180910390a486857f429752043da5fce085d1ecc7544abd57d4febf6eba7252106f0c44a9f2a832ee886040518060400160405280600381526020016241726360e81b8152506040516115e0929190611e30565b60405180910390a36003546040858101519051634beaf7d560e01b8152600481018a90526001600160a01b03918216602482015260448101899052911690634beaf7d590606401600060405180830381600087803b15801561164157600080fd5b505af1158015611655573d6000803e3d6000fd5b505050505050505061166660018055565b92915050565b6116746116bc565b600855565b6116816116bc565b6001600160a01b0381166116b057604051631e4fbdf760e01b8152600060048201526024015b60405180910390fd5b6116b9816116e9565b50565b6000546001600160a01b031633146106745760405163118cdaa760e01b81523360048201526024016116a7565b600080546001600160a01b038381166001600160a01b0319831681178455604051919092169283917f8be0079c531659141344cd1fd0a4f28419497f9722a3daafe3b4186f6b6457e09190a35050565b60008061174962278d0042611da4565b90506117588362015180611e51565b6117658262278d00611e51565b61176f9190611e1d565b9392505050565b60026001540361179957604051633ee5aeb560e01b815260040160405180910390fd5b6002600155565b604080516001600160a01b0385811660248301528416604482015260648082018490528251808303909101815260849091019091526020810180516001600160e01b03166323b872dd60e01b1790526117fa908590611800565b50505050565b60006118156001600160a01b03841683611868565b9050805160001415801561183a5750808060200190518101906118389190611dfb565b155b1561186357604051635274afe760e01b81526001600160a01b03841660048201526024016116a7565b505050565b606061176f8383600084600080856001600160a01b0316848660405161188e9190611e68565b60006040518083038185875af1925050503d80600081146118cb576040519150601f19603f3d011682016040523d82523d6000602084013e6118d0565b606091505b50915091506118e08683836118ea565b9695505050505050565b6060826118ff576118fa82611946565b61176f565b815115801561191657506001600160a01b0384163b155b1561193f57604051639996b31560e01b81526001600160a01b03851660048201526024016116a7565b508061176f565b8051156119565780518082602001fd5b604051630a12f52160e11b815260040160405180910390fd5b6040518061010001604052806000815260200160008152602001600081526020016000815260200160008152602001600060038111156119b1576119b1611a22565b815260006020820181905260409091015290565b6000602082840312156119d757600080fd5b5035919050565b6020808252825182820181905260009190848201906040850190845b81811015611a16578351835292840192918401916001016119fa565b50909695505050505050565b634e487b7160e01b600052602160045260246000fd5b60048110611a5657634e487b7160e01b600052602160045260246000fd5b9052565b805182526020810151602083015260408101516040830152606081015160608301526080810151608083015260a0810151611a9860a0840182611a38565b5060c08181015115159083015260e090810151910152565b61010081016116668284611a5a565b6020808252825182820181905260009190848201906040850190845b81811015611a1657611aee838551611a5a565b928401926101009290920191600101611adb565b60005b83811015611b1d578181015183820152602001611b05565b50506000910152565b60008151808452611b3e816020860160208601611b02565b601f01601f19169290920160200192915050565b60208152600061176f6020830184611b26565b600061010082019050898252886020830152876040830152866060830152856080830152611b9660a0830186611a38565b92151560c082015260e001529695505050505050565b6001600160a01b03811681146116b957600080fd5b600080600060608486031215611bd657600080fd5b8335611be181611bac565b92506020840135611bf181611bac565b91506040840135611c0181611bac565b809150509250925092565b60008060408385031215611c1f57600080fd5b50508035926020909101359150565b600060208284031215611c4057600080fd5b813561176f81611bac565b634e487b7160e01b600052604160045260246000fd5b634e487b7160e01b600052603260045260246000fd5b634e487b7160e01b600052601160045260246000fd5b600060018201611c9f57611c9f611c77565b5060010190565b604051610140810167ffffffffffffffff81118282101715611cd857634e487b7160e01b600052604160045260246000fd5b60405290565b80516110be81611bac565b8051600381106110be57600080fd5b60006101408284031215611d0b57600080fd5b611d13611ca6565b82518152611d2360208401611cde565b6020820152611d3460408401611cde565b6040820152606083015160608201526080830151608082015260a083015160a082015260c083015160c0820152611d6d60e08401611ce9565b60e08201526101008381015190820152610120928301519281019290925250919050565b8181038181111561166657611666611c77565b600082611dc157634e487b7160e01b600052601260045260246000fd5b500490565b600060208284031215611dd857600080fd5b5051919050565b6000600160ff1b8201611df457611df4611c77565b5060000390565b600060208284031215611e0d57600080fd5b8151801515811461176f57600080fd5b8082018082111561166657611666611c77565b828152604060208201526000611e496040830184611b26565b949350505050565b808202811582820484141761166657611666611c77565b60008251611e7a818460208701611b02565b919091019291505056fea264697066735822122021062c01634b76d026e018c52a1b2f6927c89fce175dce871057d53c7e85ab6f64736f6c63430008140033",
  "devdoc": {
    "details": "Handles rent payments, USDC settlement, and event emission                            PAYMENT FLOW                                                                                                                                                 TENANT    PAY     CONVERT  SETTLE                                  RENT        TO USDC      ON ARC                                                                                                                                                                                                                                                 EMIT         VAULT        UPDATE                        EVENTS       DEPOSIT       LEASE                                                                                                                                                                                                                                                         REPUTATION UPDATE + AI TRIGGERS                                                   ",
    "errors": {
      "AddressEmptyCode(address)": [
        {
          "details": "There's no code at `target` (it is not a contract)."
        }
      ],
      "AddressInsufficientBalance(address)": [
        {
          "details": "The ETH balance of the account is not enough to perform the operation."
        }
      ],
      "FailedInnerCall()": [
        {
          "details": "A call to an address target failed. The target may have reverted."
        }
      ],
      "OwnableInvalidOwner(address)": [
        {
          "details": "The owner is not a valid owner account. (eg. `address(0)`)"
        }
      ],
      "OwnableUnauthorizedAccount(address)": [
        {
          "details": "The caller account is not authorized to perform an operation."
        }
      ],
      "ReentrancyGuardReentrantCall()": [
        {
          "details": "Unauthorized reentrant call."
        }
      ],
      "SafeERC20FailedOperation(address)": [
        {
          "details": "An operation with an ERC20 token failed."
        }
      ]
    },
    "kind": "dev",
    "methods": {
      "checkRentDue(uint256)": {
        "params": {
          "leaseId": "The lease ID"
        },
        "returns": {
          "daysUntilDue": "Days until due (negative if overdue)",
          "isDue": "Whether rent is due"
        }
      },
      "constructor": {
        "params": {
          "_usdc": "USDC token address"
        }
      },
      "estimateEarlyPaymentYield(uint256)": {
        "params": {
          "leaseId": "The lease ID"
        },
        "returns": {
          "_0": "estimatedYield Estimated yield amount"
        }
      },
      "getLeasePayments(uint256)": {
        "params": {
          "leaseId": "The lease ID"
        },
        "returns": {
          "_0": "Array of payment IDs"
        }
      },
      "getPayment(uint256)": {
        "params": {
          "paymentId": "The payment ID"
        },
        "returns": {
          "_0": "The payment data"
        }
      },
      "getPaymentHistory(uint256)": {
        "params": {
          "leaseId": "The lease ID"
        },
        "returns": {
          "_0": "paymentList Array of payment data"
        }
      },
      "owner()": {
        "details": "Returns the address of the current owner."
      },
      "payRent(uint256)": {
        "details": "This is the main entry point for rent payments Flow: Tenant  USDC  Vault  Lease Update  Reputation Update",
        "params": {
          "leaseId": "The lease ID to pay rent for"
        },
        "returns": {
          "paymentId": "The ID of the payment record "
        }
      },
      "payRentCustomAmount(uint256,uint256)": {
        "params": {
          "amount": "Amount to pay",
          "leaseId": "The lease ID"
        },
        "returns": {
          "paymentId": "The payment ID"
        }
      },
      "renounceOwnership()": {
        "details": "Leaves the contract without owner. It will not be possible to call `onlyOwner` functions. Can only be called by the current owner. NOTE: Renouncing ownership will leave the contract without an owner, thereby disabling any functionality that is only available to the owner."
      },
      "setContracts(address,address,address)": {
        "params": {
          "_leaseNFT": "LeaseNFT contract address",
          "_reputation": "ReputationRegistry contract address",
          "_vault": "NomaVault contract address"
        }
      },
      "setGracePeriod(uint256)": {
        "params": {
          "_gracePeriod": "New grace period in seconds"
        }
      },
      "transferOwnership(address)": {
        "details": "Transfers ownership of the contract to a new account (`newOwner`). Can only be called by the current owner."
      }
    },
    "title": "NomaPayment",
    "version": 1
  },
  "userdoc": {
    "events": {
      "AIAgentTrigger(string,uint256,bytes)": {
        "notice": "Emitted for AI agent trigger points"
      },
      "LeaseCreated(uint256,address,address,uint256,uint256)": {
        "notice": "Emitted when a new lease is created"
      },
      "PaymentSettled(uint256,uint256,uint256,string)": {
        "notice": "Emitted when payment is settled on Arc"
      },
      "RentPaid(uint256,uint256,address,uint256,bool,uint256)": {
        "notice": "Emitted when rent is paid"
      },
      "ReputationUpdated(address,uint256,uint8)": {
        "notice": "Emitted when reputation is updated"
      },
      "YieldRouted(uint256,uint256,string)": {
        "notice": "Emitted when yield is routed"
      }
    },
    "kind": "user",
    "methods": {
      "SETTLEMENT_CHAIN()": {
        "notice": "Settlement chain identifier"
      },
      "checkRentDue(uint256)": {
        "notice": "Check if rent is due for a lease"
      },
      "constructor": {
        "notice": "Initialize payment contract"
      },
      "estimateEarlyPaymentYield(uint256)": {
        "notice": "Estimate yield for early payment"
      },
      "getLeasePayments(uint256)": {
        "notice": "Get all payments for a lease"
      },
      "getPayment(uint256)": {
        "notice": "Get payment details"
      },
      "getPaymentHistory(uint256)": {
        "notice": "Get payment history for a lease"
      },
      "gracePeriod()": {
        "notice": "Grace period for late payments (in seconds)"
      },
      "leaseNFT()": {
        "notice": "LeaseNFT contract"
      },
      "leasePayments(uint256,uint256)": {
        "notice": "Mapping of lease ID to payment IDs"
      },
      "payRent(uint256)": {
        "notice": "Pay rent for a lease"
      },
      "payRentCustomAmount(uint256,uint256)": {
        "notice": "Pay rent with custom amount (partial or advance)"
      },
      "payments(uint256)": {
        "notice": "Mapping of payment ID to payment data"
      },
      "reputation()": {
        "notice": "ReputationRegistry contract"
      },
      "setContracts(address,address,address)": {
        "notice": "Set contract references"
      },
      "setGracePeriod(uint256)": {
        "notice": "Set grace period for late payments"
      },
      "usdc()": {
        "notice": "USDC token contract"
      },
      "vault()": {
        "notice": "NomaVault contract"
      }
    },
    "notice": "Core payment processing contract for NOMA protocol",
    "version": 1
  },
  "storageLayout": {
    "storage": [
      {
        "astId": 8,
        "contract": "contracts/NomaPayment.sol:NomaPayment",
        "label": "_owner",
        "offset": 0,
        "slot": "0",
        "type": "t_address"
      },
      {
        "astId": 2853,
        "contract": "contracts/NomaPayment.sol:NomaPayment",
        "label": "_status",
        "offset": 0,
        "slot": "1",
        "type": "t_uint256"
      },
      {
        "astId": 4907,
        "contract": "contracts/NomaPayment.sol:NomaPayment",
        "label": "leaseNFT",
        "offset": 0,
        "slot": "2",
        "type": "t_contract(LeaseNFT)4878"
      },
      {
        "astId": 4911,
        "contract": "contracts/NomaPayment.sol:NomaPayment",
        "label": "vault",
        "offset": 0,
        "slot": "3",
        "type": "t_contract(NomaVault)6089"
      },
      {
        "astId": 4915,
        "contract": "contracts/NomaPayment.sol:NomaPayment",
        "label": "reputation",
        "offset": 0,
        "slot": "4",
        "type": "t_contract(ReputationRegistry)6819"
      },
      {
        "astId": 4918,
        "contract": "contracts/NomaPayment.sol:NomaPayment",
        "label": "_paymentIdCounter",
        "offset": 0,
        "slot": "5",
        "type": "t_uint256"
      },
      {
        "astId": 4924,
        "contract": "contracts/NomaPayment.sol:NomaPayment",
        "label": "payments",
        "offset": 0,
        "slot": "6",
        "type": "t_mapping(t_uint256,t_struct(RentPayment)6913_storage)"
      },
      {
        "astId": 4930,
        "contract": "contracts/NomaPayment.sol:NomaPayment",
        "label": "leasePayments",
        "offset": 0,
        "slot": "7",
        "type": "t_mapping(t_uint256,t_array(t_uint256)dyn_storage)"
      },
      {
        "astId": 4938,
        "contract": "contracts/NomaPayment.sol:NomaPayment",
        "label": "gracePeriod",
        "offset": 0,
        "slot": "8",
        "type": "t_uint256"
      }
    ],
    "types": {
      "t_address": {
        "encoding": "inplace",
        "label": "address",
        "numberOfBytes": "20"
      },
      "t_array(t_uint256)dyn_storage": {
        "base": "t_uint256",
        "encoding": "dynamic_array",
        "label": "uint256[]",
        "numberOfBytes": "32"
      },
      "t_bool": {
        "encoding": "inplace",
        "label": "bool",
        "numberOfBytes": "1"
      },
      "t_contract(LeaseNFT)4878": {
        "encoding": "inplace",
        "label": "contract LeaseNFT",
        "numberOfBytes": "20"
      },
      "t_contract(NomaVault)6089": {
        "encoding": "inplace",
        "label": "contract NomaVault",
        "numberOfBytes": "20"
      },
      "t_contract(ReputationRegistry)6819": {
        "encoding": "inplace",
        "label": "contract ReputationRegistry",
        "numberOfBytes": "20"
      },
      "t_enum(PaymentStatus)6865": {
        "encoding": "inplace",
        "label": "enum INomaTypes.PaymentStatus",
        "numberOfBytes": "1"
      },
      "t_mapping(t_uint256,t_array(t_uint256)dyn_storage)": {
        "encoding": "mapping",
        "key": "t_uint256",
        "label": "mapping(uint256 => uint256[])",
        "numberOfBytes": "32",
        "value": "t_array(t_uint256)dyn_storage"
      },
      "t_mapping(t_uint256,t_struct(RentPayment)6913_storage)": {
        "encoding": "mapping",
        "key": "t_uint256",
        "label": "mapping(uint256 => struct INomaTypes.RentPayment)",
        "numberOfBytes": "32",
        "value": "t_struct(RentPayment)6913_storage"
      },
      "t_struct(RentPayment)6913_storage": {
        "encoding": "inplace",
        "label": "struct INomaTypes.RentPayment",
        "members": [
          {
            "astId": 6897,
            "contract": "contracts/NomaPayment.sol:NomaPayment",
            "label": "paymentId",
            "offset": 0,
            "slot": "0",
            "type": "t_uint256"
          },
          {
            "astId": 6899,
            "contract": "contracts/NomaPayment.sol:NomaPayment",
            "label": "leaseId",
            "offset": 0,
            "slot": "1",
            "type": "t_uint256"
          },
          {
            "astId": 6901,
            "contract": "contracts/NomaPayment.sol:NomaPayment",
            "label": "amount",
            "offset": 0,
            "slot": "2",
            "type": "t_uint256"
          },
          {
            "astId": 6903,
            "contract": "contracts/NomaPayment.sol:NomaPayment",
            "label": "dueDate",
            "offset": 0,
            "slot": "3",
            "type": "t_uint256"
          },
          {
            "astId": 6905,
            "contract": "contracts/NomaPayment.sol:NomaPayment",
            "label": "paidDate",
            "offset": 0,
            "slot": "4",
            "type": "t_uint256"
          },
          {
            "astId": 6908,
            "contract": "contracts/NomaPayment.sol:NomaPayment",
            "label": "status",
            "offset": 0,
            "slot": "5",
            "type": "t_enum(PaymentStatus)6865"
          },
          {
            "astId": 6910,
            "contract": "contracts/NomaPayment.sol:NomaPayment",
            "label": "isEarly",
            "offset": 1,
            "slot": "5",
            "type": "t_bool"
          },
          {
            "astId": 6912,
            "contract": "contracts/NomaPayment.sol:NomaPayment",
            "label": "yieldEarned",
            "offset": 0,
            "slot": "6",
            "type": "t_uint256"
          }
        ],
        "numberOfBytes": "224"
      },
      "t_uint256": {
        "encoding": "inplace",
        "label": "uint256",
        "numberOfBytes": "32"
      }
    }
  }
}