{
  "address": "0xc8a37Bd0B65862e9e38F7568621e4349d84De007",
  "abi": [
    {
      "inputs": [
        {
          "internalType": "address",
          "name": "_usdc",
          "type": "address"
        }
      ],
      "stateMutability": "nonpayable",
      "type": "constructor"
    },
    {
      "inputs": [
        {
          "internalType": "address",
          "name": "target",
          "type": "address"
        }
      ],
      "name": "AddressEmptyCode",
      "type": "error"
    },
    {
      "inputs": [
        {
          "internalType": "address",
          "name": "account",
          "type": "address"
        }
      ],
      "name": "AddressInsufficientBalance",
      "type": "error"
    },
    {
      "inputs": [],
      "name": "FailedInnerCall",
      "type": "error"
    },
    {
      "inputs": [],
      "name": "InsufficientBalance",
      "type": "error"
    },
    {
      "inputs": [],
      "name": "InvalidAmount",
      "type": "error"
    },
    {
      "inputs": [
        {
          "internalType": "address",
          "name": "owner",
          "type": "address"
        }
      ],
      "name": "OwnableInvalidOwner",
      "type": "error"
    },
    {
      "inputs": [
        {
          "internalType": "address",
          "name": "account",
          "type": "address"
        }
      ],
      "name": "OwnableUnauthorizedAccount",
      "type": "error"
    },
    {
      "inputs": [],
      "name": "ReentrancyGuardReentrantCall",
      "type": "error"
    },
    {
      "inputs": [
        {
          "internalType": "address",
          "name": "token",
          "type": "address"
        }
      ],
      "name": "SafeERC20FailedOperation",
      "type": "error"
    },
    {
      "inputs": [],
      "name": "TransferFailed",
      "type": "error"
    },
    {
      "inputs": [],
      "name": "Unauthorized",
      "type": "error"
    },
    {
      "anonymous": false,
      "inputs": [
        {
          "indexed": true,
          "internalType": "string",
          "name": "triggerType",
          "type": "string"
        },
        {
          "indexed": true,
          "internalType": "uint256",
          "name": "leaseId",
          "type": "uint256"
        },
        {
          "indexed": false,
          "internalType": "bytes",
          "name": "data",
          "type": "bytes"
        }
      ],
      "name": "AIAgentTrigger",
      "type": "event"
    },
    {
      "anonymous": false,
      "inputs": [
        {
          "indexed": true,
          "internalType": "uint256",
          "name": "leaseId",
          "type": "uint256"
        },
        {
          "indexed": true,
          "internalType": "address",
          "name": "tenant",
          "type": "address"
        },
        {
          "indexed": true,
          "internalType": "address",
          "name": "landlord",
          "type": "address"
        },
        {
          "indexed": false,
          "internalType": "uint256",
          "name": "monthlyRent",
          "type": "uint256"
        },
        {
          "indexed": false,
          "internalType": "uint256",
          "name": "dueDay",
          "type": "uint256"
        }
      ],
      "name": "LeaseCreated",
      "type": "event"
    },
    {
      "anonymous": false,
      "inputs": [
        {
          "indexed": true,
          "internalType": "address",
          "name": "previousOwner",
          "type": "address"
        },
        {
          "indexed": true,
          "internalType": "address",
          "name": "newOwner",
          "type": "address"
        }
      ],
      "name": "OwnershipTransferred",
      "type": "event"
    },
    {
      "anonymous": false,
      "inputs": [
        {
          "indexed": true,
          "internalType": "uint256",
          "name": "paymentId",
          "type": "uint256"
        },
        {
          "indexed": true,
          "internalType": "uint256",
          "name": "leaseId",
          "type": "uint256"
        },
        {
          "indexed": false,
          "internalType": "uint256",
          "name": "amount",
          "type": "uint256"
        },
        {
          "indexed": false,
          "internalType": "string",
          "name": "settlementChain",
          "type": "string"
        }
      ],
      "name": "PaymentSettled",
      "type": "event"
    },
    {
      "anonymous": false,
      "inputs": [
        {
          "indexed": true,
          "internalType": "uint256",
          "name": "leaseId",
          "type": "uint256"
        },
        {
          "indexed": true,
          "internalType": "uint256",
          "name": "paymentId",
          "type": "uint256"
        },
        {
          "indexed": true,
          "internalType": "address",
          "name": "tenant",
          "type": "address"
        },
        {
          "indexed": false,
          "internalType": "uint256",
          "name": "amount",
          "type": "uint256"
        },
        {
          "indexed": false,
          "internalType": "bool",
          "name": "isEarly",
          "type": "bool"
        },
        {
          "indexed": false,
          "internalType": "uint256",
          "name": "yieldEarned",
          "type": "uint256"
        }
      ],
      "name": "RentPaid",
      "type": "event"
    },
    {
      "anonymous": false,
      "inputs": [
        {
          "indexed": true,
          "internalType": "address",
          "name": "tenant",
          "type": "address"
        },
        {
          "indexed": false,
          "internalType": "uint256",
          "name": "newScore",
          "type": "uint256"
        },
        {
          "indexed": false,
          "internalType": "enum INomaTypes.ReputationTier",
          "name": "newTier",
          "type": "uint8"
        }
      ],
      "name": "ReputationUpdated",
      "type": "event"
    },
    {
      "anonymous": false,
      "inputs": [
        {
          "indexed": true,
          "internalType": "uint256",
          "name": "leaseId",
          "type": "uint256"
        },
        {
          "indexed": false,
          "internalType": "uint256",
          "name": "amount",
          "type": "uint256"
        },
        {
          "indexed": false,
          "internalType": "string",
          "name": "strategy",
          "type": "string"
        }
      ],
      "name": "YieldRouted",
      "type": "event"
    },
    {
      "inputs": [
        {
          "internalType": "uint256",
          "name": "leaseId",
          "type": "uint256"
        }
      ],
      "name": "accrueYield",
      "outputs": [],
      "stateMutability": "nonpayable",
      "type": "function"
    },
    {
      "inputs": [
        {
          "internalType": "address",
          "name": "recipient",
          "type": "address"
        }
      ],
      "name": "claimYield",
      "outputs": [],
      "stateMutability": "nonpayable",
      "type": "function"
    },
    {
      "inputs": [
        {
          "internalType": "address",
          "name": "",
          "type": "address"
        }
      ],
      "name": "claimableYield",
      "outputs": [
        {
          "internalType": "uint256",
          "name": "",
          "type": "uint256"
        }
      ],
      "stateMutability": "view",
      "type": "function"
    },
    {
      "inputs": [],
      "name": "currentStrategy",
      "outputs": [
        {
          "internalType": "string",
          "name": "",
          "type": "string"
        }
      ],
      "stateMutability": "view",
      "type": "function"
    },
    {
      "inputs": [
        {
          "internalType": "uint256",
          "name": "leaseId",
          "type": "uint256"
        },
        {
          "internalType": "uint256",
          "name": "amount",
          "type": "uint256"
        },
        {
          "internalType": "bool",
          "name": "isEarly",
          "type": "bool"
        }
      ],
      "name": "depositRent",
      "outputs": [
        {
          "internalType": "uint256",
          "name": "yieldEarned",
          "type": "uint256"
        }
      ],
      "stateMutability": "nonpayable",
      "type": "function"
    },
    {
      "inputs": [],
      "name": "earlyPaymentYieldBps",
      "outputs": [
        {
          "internalType": "uint256",
          "name": "",
          "type": "uint256"
        }
      ],
      "stateMutability": "view",
      "type": "function"
    },
    {
      "inputs": [
        {
          "internalType": "uint256",
          "name": "amount",
          "type": "uint256"
        },
        {
          "internalType": "uint256",
          "name": "daysEarly",
          "type": "uint256"
        }
      ],
      "name": "estimateYield",
      "outputs": [
        {
          "internalType": "uint256",
          "name": "estimatedYield",
          "type": "uint256"
        }
      ],
      "stateMutability": "view",
      "type": "function"
    },
    {
      "inputs": [
        {
          "internalType": "uint256",
          "name": "leaseId",
          "type": "uint256"
        }
      ],
      "name": "getLeaseVaultInfo",
      "outputs": [
        {
          "internalType": "uint256",
          "name": "deposited",
          "type": "uint256"
        },
        {
          "internalType": "uint256",
          "name": "yieldEarned",
          "type": "uint256"
        }
      ],
      "stateMutability": "view",
      "type": "function"
    },
    {
      "inputs": [],
      "name": "getVaultStats",
      "outputs": [
        {
          "internalType": "uint256",
          "name": "deposits",
          "type": "uint256"
        },
        {
          "internalType": "uint256",
          "name": "yield_",
          "type": "uint256"
        },
        {
          "internalType": "string",
          "name": "strategy",
          "type": "string"
        },
        {
          "internalType": "uint256",
          "name": "apy",
          "type": "uint256"
        }
      ],
      "stateMutability": "view",
      "type": "function"
    },
    {
      "inputs": [
        {
          "internalType": "uint256",
          "name": "",
          "type": "uint256"
        }
      ],
      "name": "leaseDeposits",
      "outputs": [
        {
          "internalType": "uint256",
          "name": "",
          "type": "uint256"
        }
      ],
      "stateMutability": "view",
      "type": "function"
    },
    {
      "inputs": [
        {
          "internalType": "uint256",
          "name": "",
          "type": "uint256"
        }
      ],
      "name": "leaseYield",
      "outputs": [
        {
          "internalType": "uint256",
          "name": "",
          "type": "uint256"
        }
      ],
      "stateMutability": "view",
      "type": "function"
    },
    {
      "inputs": [],
      "name": "mockAPY",
      "outputs": [
        {
          "internalType": "uint256",
          "name": "",
          "type": "uint256"
        }
      ],
      "stateMutability": "view",
      "type": "function"
    },
    {
      "inputs": [],
      "name": "owner",
      "outputs": [
        {
          "internalType": "address",
          "name": "",
          "type": "address"
        }
      ],
      "stateMutability": "view",
      "type": "function"
    },
    {
      "inputs": [],
      "name": "paymentContract",
      "outputs": [
        {
          "internalType": "address",
          "name": "",
          "type": "address"
        }
      ],
      "stateMutability": "view",
      "type": "function"
    },
    {
      "inputs": [],
      "name": "renounceOwnership",
      "outputs": [],
      "stateMutability": "nonpayable",
      "type": "function"
    },
    {
      "inputs": [
        {
          "internalType": "uint256",
          "name": "_yieldBps",
          "type": "uint256"
        }
      ],
      "name": "setEarlyPaymentYield",
      "outputs": [],
      "stateMutability": "nonpayable",
      "type": "function"
    },
    {
      "inputs": [
        {
          "internalType": "uint256",
          "name": "_apyBps",
          "type": "uint256"
        }
      ],
      "name": "setMockAPY",
      "outputs": [],
      "stateMutability": "nonpayable",
      "type": "function"
    },
    {
      "inputs": [
        {
          "internalType": "address",
          "name": "_paymentContract",
          "type": "address"
        }
      ],
      "name": "setPaymentContract",
      "outputs": [],
      "stateMutability": "nonpayable",
      "type": "function"
    },
    {
      "inputs": [],
      "name": "totalDeposits",
      "outputs": [
        {
          "internalType": "uint256",
          "name": "",
          "type": "uint256"
        }
      ],
      "stateMutability": "view",
      "type": "function"
    },
    {
      "inputs": [],
      "name": "totalYieldGenerated",
      "outputs": [
        {
          "internalType": "uint256",
          "name": "",
          "type": "uint256"
        }
      ],
      "stateMutability": "view",
      "type": "function"
    },
    {
      "inputs": [
        {
          "internalType": "address",
          "name": "newOwner",
          "type": "address"
        }
      ],
      "name": "transferOwnership",
      "outputs": [],
      "stateMutability": "nonpayable",
      "type": "function"
    },
    {
      "inputs": [
        {
          "internalType": "string",
          "name": "strategy",
          "type": "string"
        }
      ],
      "name": "updateYieldStrategy",
      "outputs": [],
      "stateMutability": "nonpayable",
      "type": "function"
    },
    {
      "inputs": [],
      "name": "usdc",
      "outputs": [
        {
          "internalType": "contract IERC20",
          "name": "",
          "type": "address"
        }
      ],
      "stateMutability": "view",
      "type": "function"
    },
    {
      "inputs": [
        {
          "internalType": "uint256",
          "name": "leaseId",
          "type": "uint256"
        },
        {
          "internalType": "address",
          "name": "landlord",
          "type": "address"
        },
        {
          "internalType": "uint256",
          "name": "amount",
          "type": "uint256"
        }
      ],
      "name": "withdrawToLandlord",
      "outputs": [],
      "stateMutability": "nonpayable",
      "type": "function"
    }
  ],
  "transactionHash": "0xddfdbcd16ed7d566b692ce22efebf8c491d5c352574a579c0c030b158b9e0795",
  "args": [
    "0x5FC8d32690cc91D4c39d9d3abcBD16989F875707"
  ],
  "numDeployments": 1,
  "solcInputHash": "46b81ae9e1ea028be64b386a1387d251",
  "bytecode": "0x603260055560e0604052600c60a09081526b14d51050931157d65251531160a21b60c052600990620000329082620001a7565b506101f4600a553480156200004657600080fd5b506040516200154638038062001546833981016040819052620000699162000273565b33806200009057604051631e4fbdf760e01b81526000600482015260240160405180910390fd5b6200009b81620000b2565b50600180556001600160a01b0316608052620002a5565b600080546001600160a01b038381166001600160a01b0319831681178455604051919092169283917f8be0079c531659141344cd1fd0a4f28419497f9722a3daafe3b4186f6b6457e09190a35050565b634e487b7160e01b600052604160045260246000fd5b600181811c908216806200012d57607f821691505b6020821081036200014e57634e487b7160e01b600052602260045260246000fd5b50919050565b601f821115620001a257600081815260208120601f850160051c810160208610156200017d5750805b601f850160051c820191505b818110156200019e5782815560010162000189565b5050505b505050565b81516001600160401b03811115620001c357620001c362000102565b620001db81620001d4845462000118565b8462000154565b602080601f831160018114620002135760008415620001fa5750858301515b600019600386901b1c1916600185901b1785556200019e565b600085815260208120601f198616915b82811015620002445788860151825594840194600190910190840162000223565b5085821015620002635787850151600019600388901b60f8161c191681555b5050505050600190811b01905550565b6000602082840312156200028657600080fd5b81516001600160a01b03811681146200029e57600080fd5b9392505050565b608051611270620002d660003960008181610228015281816104be01528181610751015261093a01526112706000f3fe608060405234801561001057600080fd5b50600436106101585760003560e01c8063715018a6116100c3578063999927df1161007c578063999927df1461030a578063999ce3de1461031d5780639c91dd5614610330578063a59aa5a614610343578063bce7c8b61461035b578063f2fde38b1461037b57600080fd5b8063715018a6146102c35780637d882097146102cb578063864c61a4146102d45780638abb20cc146102dd5780638c825056146102f05780638da5cb5b146102f957600080fd5b80633e413bee116101155780633e413bee146102235780633f775726146102625780634426ed62146102755780634beaf7d5146102885780635b4823e81461029b5780636a1ceb2d146102ae57600080fd5b806308b0b0c81461015d5780630d8e08431461017257806311abf6151461019857806311db0ffc146101a157806313c568f8146101c15780633180afec14610203575b600080fd5b61017061016b366004610d3b565b61038e565b005b610185610180366004610d62565b61045b565b6040519081526020015b60405180910390f35b61018560055481565b6101856101af366004610d3b565b60066020526000908152604090205481565b6101ee6101cf366004610d3b565b6000908152600660209081526040808320546008909252909120549091565b6040805192835260208301919091520161018f565b610185610211366004610db7565b60076020526000908152604090205481565b61024a7f000000000000000000000000000000000000000000000000000000000000000081565b6040516001600160a01b03909116815260200161018f565b610185610270366004610dd2565b61063e565b610170610283366004610d3b565b610699565b610170610296366004610df4565b6106a6565b6101706102a9366004610e29565b610786565b6102b6610820565b60405161018f9190610eeb565b6101706108ae565b61018560035481565b610185600a5481565b6101706102eb366004610db7565b6108c2565b61018560045481565b6000546001600160a01b031661024a565b610170610318366004610db7565b6108ec565b61017061032b366004610d3b565b610976565b60025461024a906001600160a01b031681565b61034b610983565b60405161018f9493929190610efe565b610185610369366004610d3b565b60086020526000908152604090205481565b610170610389366004610db7565b610a2f565b610396610a6f565b600081815260066020526040902054801561045757600061016d612710600a54846103c19190610f44565b6103cb9190610f5b565b6103d59190610f5b565b9050806008600085815260200190815260200160002060008282546103fa9190610f7d565b9250508190555080600460008282546104139190610f7d565b92505081905550827ffb8a71d84214b5abb6301b52e0be1f6ae223bb90839d3551493cb45c9798101a82600960405161044d929190611047565b60405180910390a2505b5050565b6002546000906001600160a01b03163314610488576040516282b42960e81b815260040160405180910390fd5b610490610a9c565b826000036104b15760405163162908e360e11b815260040160405180910390fd5b6104e66001600160a01b037f000000000000000000000000000000000000000000000000000000000000000016333086610ac6565b60008481526006602052604081208054859290610504908490610f7d565b92505081905550826003600082825461051d9190610f7d565b9091555050811561062e5761053183610b33565b9050806008600086815260200190815260200160002060008282546105569190610f7d565b92505081905550806004600082825461056f9190610f7d565b92505081905550837ffb8a71d84214b5abb6301b52e0be1f6ae223bb90839d3551493cb45c9798101a8260096040516105a9929190611047565b60405180910390a26040516c5949454c445f524f5554494e4760981b81528490600d0160405180910390207f24dae94385c9aa4ee70d42172eb2ccbc9f8e6f09eedd940918dcd46e5563abf98584600960405160200161060b93929190611068565b60408051601f198184030181529082905261062591610eeb565b60405180910390a35b61063760018055565b9392505050565b600080612710600554856106529190610f44565b61065c9190610f5b565b9050600061271061066d8587610f44565b610678906002610f44565b6106829190610f5b565b905061068e8183610f7d565b925050505b92915050565b6106a1610a6f565b600555565b6002546001600160a01b031633146106d0576040516282b42960e81b815260040160405180910390fd5b6106d8610a9c565b60008381526006602052604090205481111561070757604051631e9acf1760e31b815260040160405180910390fd5b60008381526006602052604081208054839290610725908490611090565b92505081905550806003600082825461073e9190611090565b9091555061077890506001600160a01b037f0000000000000000000000000000000000000000000000000000000000000000168383610b50565b61078160018055565b505050565b61078e610a6f565b600961079b828483611107565b506040516e53545241544547595f55504441544560881b8152600090600f0160405180910390207f24dae94385c9aa4ee70d42172eb2ccbc9f8e6f09eedd940918dcd46e5563abf98484600a546040516020016107fa939291906111c8565b60408051601f198184030181529082905261081491610eeb565b60405180910390a35050565b6009805461082d90610f90565b80601f016020809104026020016040519081016040528092919081815260200182805461085990610f90565b80156108a65780601f1061087b576101008083540402835291602001916108a6565b820191906000526020600020905b81548152906001019060200180831161088957829003601f168201915b505050505081565b6108b6610a6f565b6108c06000610b81565b565b6108ca610a6f565b600280546001600160a01b0319166001600160a01b0392909216919091179055565b6108f4610a9c565b336000908152600760205260408120549081900361092557604051631e9acf1760e31b815260040160405180910390fd5b336000908152600760205260408120556109697f00000000000000000000000000000000000000000000000000000000000000006001600160a01b03168383610b50565b5061097360018055565b50565b61097e610a6f565b600a55565b600080606060006003546004546009600a548180546109a190610f90565b80601f01602080910402602001604051908101604052809291908181526020018280546109cd90610f90565b8015610a1a5780601f106109ef57610100808354040283529160200191610a1a565b820191906000526020600020905b8154815290600101906020018083116109fd57829003601f168201915b50505050509150935093509350935090919293565b610a37610a6f565b6001600160a01b038116610a6657604051631e4fbdf760e01b8152600060048201526024015b60405180910390fd5b61097381610b81565b6000546001600160a01b031633146108c05760405163118cdaa760e01b8152336004820152602401610a5d565b600260015403610abf57604051633ee5aeb560e01b815260040160405180910390fd5b6002600155565b6040516001600160a01b038481166024830152838116604483015260648201839052610b2d9186918216906323b872dd906084015b604051602081830303815290604052915060e01b6020820180516001600160e01b038381831617835250505050610bd1565b50505050565b600061271060055483610b469190610f44565b6106939190610f5b565b6040516001600160a01b0383811660248301526044820183905261078191859182169063a9059cbb90606401610afb565b600080546001600160a01b038381166001600160a01b0319831681178455604051919092169283917f8be0079c531659141344cd1fd0a4f28419497f9722a3daafe3b4186f6b6457e09190a35050565b6000610be66001600160a01b03841683610c34565b90508051600014158015610c0b575080806020019051810190610c099190611201565b155b1561078157604051635274afe760e01b81526001600160a01b0384166004820152602401610a5d565b60606106378383600084600080856001600160a01b03168486604051610c5a919061121e565b60006040518083038185875af1925050503d8060008114610c97576040519150601f19603f3d011682016040523d82523d6000602084013e610c9c565b606091505b5091509150610cac868383610cb6565b9695505050505050565b606082610ccb57610cc682610d12565b610637565b8151158015610ce257506001600160a01b0384163b155b15610d0b57604051639996b31560e01b81526001600160a01b0385166004820152602401610a5d565b5080610637565b805115610d225780518082602001fd5b604051630a12f52160e11b815260040160405180910390fd5b600060208284031215610d4d57600080fd5b5035919050565b801515811461097357600080fd5b600080600060608486031215610d7757600080fd5b83359250602084013591506040840135610d9081610d54565b809150509250925092565b80356001600160a01b0381168114610db257600080fd5b919050565b600060208284031215610dc957600080fd5b61063782610d9b565b60008060408385031215610de557600080fd5b50508035926020909101359150565b600080600060608486031215610e0957600080fd5b83359250610e1960208501610d9b565b9150604084013590509250925092565b60008060208385031215610e3c57600080fd5b823567ffffffffffffffff80821115610e5457600080fd5b818501915085601f830112610e6857600080fd5b813581811115610e7757600080fd5b866020828501011115610e8957600080fd5b60209290920196919550909350505050565b60005b83811015610eb6578181015183820152602001610e9e565b50506000910152565b60008151808452610ed7816020860160208601610e9b565b601f01601f19169290920160200192915050565b6020815260006106376020830184610ebf565b848152836020820152608060408201526000610f1d6080830185610ebf565b905082606083015295945050505050565b634e487b7160e01b600052601160045260246000fd5b808202811582820484141761069357610693610f2e565b600082610f7857634e487b7160e01b600052601260045260246000fd5b500490565b8082018082111561069357610693610f2e565b600181811c90821680610fa457607f821691505b602082108103610fc457634e487b7160e01b600052602260045260246000fd5b50919050565b60008154610fd781610f90565b808552602060018381168015610ff4576001811461100e5761103c565b60ff1985168884015283151560051b88018301955061103c565b866000528260002060005b858110156110345781548a8201860152908301908401611019565b890184019650505b505050505092915050565b8281526040602082015260006110606040830184610fca565b949350505050565b8381528260208201526060604082015260006110876060830184610fca565b95945050505050565b8181038181111561069357610693610f2e565b634e487b7160e01b600052604160045260246000fd5b601f82111561078157600081815260208120601f850160051c810160208610156110e05750805b601f850160051c820191505b818110156110ff578281556001016110ec565b505050505050565b67ffffffffffffffff83111561111f5761111f6110a3565b6111338361112d8354610f90565b836110b9565b6000601f841160018114611167576000851561114f5750838201355b600019600387901b1c1916600186901b1783556111c1565b600083815260209020601f19861690835b828110156111985786850135825560209485019460019092019101611178565b50868210156111b55760001960f88860031b161c19848701351681555b505060018560011b0183555b5050505050565b604081528260408201528284606083013760006060848301015260006060601f19601f8601168301019050826020830152949350505050565b60006020828403121561121357600080fd5b815161063781610d54565b60008251611230818460208701610e9b565b919091019291505056fea2646970667358221220224ee992ff73631ba3b88e31519d64b6bbacbdf2c4b835fa0c9be93142a3d31664736f6c63430008140033",
  "devdoc": {
    "details": "Handles yield routing for early rent payments                           NOMA VAULT                                                                                                                          DEPOSIT      YIELD POOL    DISTRIBUTE              (USDC)                                                                                                                                                                                                                     Tenant           AI Routing         Landlord               Balance          (Mock MVP)         Balance                            ",
    "errors": {
      "AddressEmptyCode(address)": [
        {
          "details": "There's no code at `target` (it is not a contract)."
        }
      ],
      "AddressInsufficientBalance(address)": [
        {
          "details": "The ETH balance of the account is not enough to perform the operation."
        }
      ],
      "FailedInnerCall()": [
        {
          "details": "A call to an address target failed. The target may have reverted."
        }
      ],
      "OwnableInvalidOwner(address)": [
        {
          "details": "The owner is not a valid owner account. (eg. `address(0)`)"
        }
      ],
      "OwnableUnauthorizedAccount(address)": [
        {
          "details": "The caller account is not authorized to perform an operation."
        }
      ],
      "ReentrancyGuardReentrantCall()": [
        {
          "details": "Unauthorized reentrant call."
        }
      ],
      "SafeERC20FailedOperation(address)": [
        {
          "details": "An operation with an ERC20 token failed."
        }
      ]
    },
    "kind": "dev",
    "methods": {
      "accrueYield(uint256)": {
        "params": {
          "leaseId": "The lease to accrue yield for"
        }
      },
      "claimYield(address)": {
        "params": {
          "recipient": "Address to send yield to"
        }
      },
      "constructor": {
        "params": {
          "_usdc": "Address of USDC token contract"
        }
      },
      "depositRent(uint256,uint256,bool)": {
        "params": {
          "amount": "Amount of USDC to deposit",
          "isEarly": "Whether this is an early payment",
          "leaseId": "The lease ID for the payment"
        },
        "returns": {
          "yieldEarned": "Amount of yield earned (if early)"
        }
      },
      "estimateYield(uint256,uint256)": {
        "params": {
          "amount": "The deposit amount",
          "daysEarly": "Days before due date"
        },
        "returns": {
          "estimatedYield": "Estimated yield amount"
        }
      },
      "getLeaseVaultInfo(uint256)": {
        "params": {
          "leaseId": "The lease ID"
        },
        "returns": {
          "deposited": "Amount deposited",
          "yieldEarned": "Yield earned"
        }
      },
      "getVaultStats()": {
        "returns": {
          "apy": "Current APY",
          "deposits": "Total deposits",
          "strategy": "Current strategy",
          "yield_": "Total yield generated"
        }
      },
      "owner()": {
        "details": "Returns the address of the current owner."
      },
      "renounceOwnership()": {
        "details": "Leaves the contract without owner. It will not be possible to call `onlyOwner` functions. Can only be called by the current owner. NOTE: Renouncing ownership will leave the contract without an owner, thereby disabling any functionality that is only available to the owner."
      },
      "setEarlyPaymentYield(uint256)": {
        "params": {
          "_yieldBps": "New yield rate in basis points"
        }
      },
      "setMockAPY(uint256)": {
        "params": {
          "_apyBps": "New APY in basis points"
        }
      },
      "setPaymentContract(address)": {
        "params": {
          "_paymentContract": "Address of NomaPayment contract"
        }
      },
      "transferOwnership(address)": {
        "details": "Transfers ownership of the contract to a new account (`newOwner`). Can only be called by the current owner."
      },
      "updateYieldStrategy(string)": {
        "details": "In production, this would integrate with actual DeFi protocols",
        "params": {
          "strategy": "New strategy identifier"
        }
      },
      "withdrawToLandlord(uint256,address,uint256)": {
        "params": {
          "amount": "Amount to withdraw",
          "landlord": "Landlord address",
          "leaseId": "The lease ID"
        }
      }
    },
    "title": "NomaVault",
    "version": 1
  },
  "userdoc": {
    "events": {
      "AIAgentTrigger(string,uint256,bytes)": {
        "notice": "Emitted for AI agent trigger points"
      },
      "LeaseCreated(uint256,address,address,uint256,uint256)": {
        "notice": "Emitted when a new lease is created"
      },
      "PaymentSettled(uint256,uint256,uint256,string)": {
        "notice": "Emitted when payment is settled on Arc"
      },
      "RentPaid(uint256,uint256,address,uint256,bool,uint256)": {
        "notice": "Emitted when rent is paid"
      },
      "ReputationUpdated(address,uint256,uint8)": {
        "notice": "Emitted when reputation is updated"
      },
      "YieldRouted(uint256,uint256,string)": {
        "notice": "Emitted when yield is routed"
      }
    },
    "kind": "user",
    "methods": {
      "accrueYield(uint256)": {
        "notice": "Simulate yield accrual (for demo purposes)"
      },
      "claimYield(address)": {
        "notice": "Claim accumulated yield"
      },
      "claimableYield(address)": {
        "notice": "Mapping of address to claimable yield"
      },
      "constructor": {
        "notice": "Initialize the vault with USDC address"
      },
      "currentStrategy()": {
        "notice": "Current yield strategy"
      },
      "depositRent(uint256,uint256,bool)": {
        "notice": "Deposit rent payment into vault"
      },
      "earlyPaymentYieldBps()": {
        "notice": "Yield rate for early payments (basis points, e.g., 50 = 0.5%)"
      },
      "estimateYield(uint256,uint256)": {
        "notice": "Get estimated yield for an amount"
      },
      "getLeaseVaultInfo(uint256)": {
        "notice": "Get lease vault info"
      },
      "getVaultStats()": {
        "notice": "Get vault stats"
      },
      "leaseDeposits(uint256)": {
        "notice": "Mapping of lease ID to deposited amount"
      },
      "leaseYield(uint256)": {
        "notice": "Mapping of lease ID to yield earned"
      },
      "mockAPY()": {
        "notice": "Mock APY for demo (in basis points, 500 = 5%)"
      },
      "paymentContract()": {
        "notice": "Payment contract address"
      },
      "setEarlyPaymentYield(uint256)": {
        "notice": "Update early payment yield rate"
      },
      "setMockAPY(uint256)": {
        "notice": "Update mock APY for demo"
      },
      "setPaymentContract(address)": {
        "notice": "Set the payment contract address"
      },
      "totalDeposits()": {
        "notice": "Total USDC in vault"
      },
      "totalYieldGenerated()": {
        "notice": "Total yield generated"
      },
      "updateYieldStrategy(string)": {
        "notice": "Update yield strategy (AI agent would call this)"
      },
      "usdc()": {
        "notice": "USDC token contract"
      },
      "withdrawToLandlord(uint256,address,uint256)": {
        "notice": "Withdraw funds to landlord"
      }
    },
    "notice": "Vault for USDC deposits, yield generation, and fund management",
    "version": 1
  },
  "storageLayout": {
    "storage": [
      {
        "astId": 8,
        "contract": "contracts/NomaVault.sol:NomaVault",
        "label": "_owner",
        "offset": 0,
        "slot": "0",
        "type": "t_address"
      },
      {
        "astId": 2853,
        "contract": "contracts/NomaVault.sol:NomaVault",
        "label": "_status",
        "offset": 0,
        "slot": "1",
        "type": "t_uint256"
      },
      {
        "astId": 5658,
        "contract": "contracts/NomaVault.sol:NomaVault",
        "label": "paymentContract",
        "offset": 0,
        "slot": "2",
        "type": "t_address"
      },
      {
        "astId": 5661,
        "contract": "contracts/NomaVault.sol:NomaVault",
        "label": "totalDeposits",
        "offset": 0,
        "slot": "3",
        "type": "t_uint256"
      },
      {
        "astId": 5664,
        "contract": "contracts/NomaVault.sol:NomaVault",
        "label": "totalYieldGenerated",
        "offset": 0,
        "slot": "4",
        "type": "t_uint256"
      },
      {
        "astId": 5668,
        "contract": "contracts/NomaVault.sol:NomaVault",
        "label": "earlyPaymentYieldBps",
        "offset": 0,
        "slot": "5",
        "type": "t_uint256"
      },
      {
        "astId": 5673,
        "contract": "contracts/NomaVault.sol:NomaVault",
        "label": "leaseDeposits",
        "offset": 0,
        "slot": "6",
        "type": "t_mapping(t_uint256,t_uint256)"
      },
      {
        "astId": 5678,
        "contract": "contracts/NomaVault.sol:NomaVault",
        "label": "claimableYield",
        "offset": 0,
        "slot": "7",
        "type": "t_mapping(t_address,t_uint256)"
      },
      {
        "astId": 5683,
        "contract": "contracts/NomaVault.sol:NomaVault",
        "label": "leaseYield",
        "offset": 0,
        "slot": "8",
        "type": "t_mapping(t_uint256,t_uint256)"
      },
      {
        "astId": 5687,
        "contract": "contracts/NomaVault.sol:NomaVault",
        "label": "currentStrategy",
        "offset": 0,
        "slot": "9",
        "type": "t_string_storage"
      },
      {
        "astId": 5691,
        "contract": "contracts/NomaVault.sol:NomaVault",
        "label": "mockAPY",
        "offset": 0,
        "slot": "10",
        "type": "t_uint256"
      }
    ],
    "types": {
      "t_address": {
        "encoding": "inplace",
        "label": "address",
        "numberOfBytes": "20"
      },
      "t_mapping(t_address,t_uint256)": {
        "encoding": "mapping",
        "key": "t_address",
        "label": "mapping(address => uint256)",
        "numberOfBytes": "32",
        "value": "t_uint256"
      },
      "t_mapping(t_uint256,t_uint256)": {
        "encoding": "mapping",
        "key": "t_uint256",
        "label": "mapping(uint256 => uint256)",
        "numberOfBytes": "32",
        "value": "t_uint256"
      },
      "t_string_storage": {
        "encoding": "bytes",
        "label": "string",
        "numberOfBytes": "32"
      },
      "t_uint256": {
        "encoding": "inplace",
        "label": "uint256",
        "numberOfBytes": "32"
      }
    }
  }
}